{
  "contracts/StandardBondingCalculator.sol": {
    "OlympusBondingCalculator": {
      "abi": [
        {
          "inputs": [
            {
              "internalType": "address",
              "name": "_PIP",
              "type": "address"
            }
          ],
          "stateMutability": "nonpayable",
          "type": "constructor"
        },
        {
          "inputs": [],
          "name": "PIP",
          "outputs": [
            {
              "internalType": "address",
              "name": "",
              "type": "address"
            }
          ],
          "stateMutability": "view",
          "type": "function"
        },
        {
          "inputs": [
            {
              "internalType": "address",
              "name": "_pair",
              "type": "address"
            }
          ],
          "name": "getKValue",
          "outputs": [
            {
              "internalType": "uint256",
              "name": "k_",
              "type": "uint256"
            }
          ],
          "stateMutability": "view",
          "type": "function"
        },
        {
          "inputs": [
            {
              "internalType": "address",
              "name": "_pair",
              "type": "address"
            }
          ],
          "name": "getTotalValue",
          "outputs": [
            {
              "internalType": "uint256",
              "name": "_value",
              "type": "uint256"
            }
          ],
          "stateMutability": "view",
          "type": "function"
        },
        {
          "inputs": [
            {
              "internalType": "address",
              "name": "_pair",
              "type": "address"
            }
          ],
          "name": "markdown",
          "outputs": [
            {
              "internalType": "uint256",
              "name": "",
              "type": "uint256"
            }
          ],
          "stateMutability": "view",
          "type": "function"
        },
        {
          "inputs": [
            {
              "internalType": "address",
              "name": "_pair",
              "type": "address"
            },
            {
              "internalType": "uint256",
              "name": "amount_",
              "type": "uint256"
            }
          ],
          "name": "valuation",
          "outputs": [
            {
              "internalType": "uint256",
              "name": "_value",
              "type": "uint256"
            }
          ],
          "stateMutability": "view",
          "type": "function"
        }
      ],
      "evm": {
        "bytecode": {
          "linkReferences": {},
          "object": "60a060405234801561001057600080fd5b50604051610d61380380610d618339818101604052602081101561003357600080fd5b50516001600160a01b03811661004857600080fd5b606081901b6001600160601b0319166080526001600160a01b0316610cdd610084600039806101d1528061026f52806106c75250610cdd6000f3fe608060405234801561001057600080fd5b50600436106100575760003560e01c806332da80a31461005c5780634249719f14610094578063490084ef146100c057806368637549146100e6578063d632fd1d1461010c575b600080fd5b6100826004803603602081101561007257600080fd5b50356001600160a01b0316610130565b60408051918252519081900360200190f35b610082600480360360408110156100aa57600080fd5b506001600160a01b038135169060200135610313565b610082600480360360208110156100d657600080fd5b50356001600160a01b03166103bb565b610082600480360360208110156100fc57600080fd5b50356001600160a01b03166106a1565b6101146106c5565b604080516001600160a01b039092168252519081900360200190f35b6000806000836001600160a01b0316630902f1ac6040518163ffffffff1660e01b815260040160606040518083038186803b15801561016e57600080fd5b505afa158015610182573d6000803e3d6000fd5b505050506040513d606081101561019857600080fd5b50805160209182015160408051630dfe168160e01b815290516001600160701b0393841696509290911693506000926001600160a01b037f000000000000000000000000000000000000000000000000000000000000000081169390891692630dfe1681926004808301939192829003018186803b15801561021957600080fd5b505afa15801561022d573d6000803e3d6000fd5b505050506040513d602081101561024357600080fd5b50516001600160a01b0316141561025b57508061025e565b50815b61030861026a866106a1565b6103027f00000000000000000000000000000000000000000000000000000000000000006001600160a01b031663313ce5676040518163ffffffff1660e01b815260040160206040518083038186803b1580156102c657600080fd5b505afa1580156102da573d6000803e3d6000fd5b505050506040513d60208110156102f057600080fd5b5051849060ff16600a0a6002026106e9565b90610749565b93505050505b919050565b60008061031f846106a1565b90506000846001600160a01b03166318160ddd6040518163ffffffff1660e01b815260040160206040518083038186803b15801561035c57600080fd5b505afa158015610370573d6000803e3d6000fd5b505050506040513d602081101561038657600080fd5b505190506103b2670de0b6b3a76400006103026103ab6103a6888661078b565b610902565b85906106e9565b95945050505050565b600080826001600160a01b0316630dfe16816040518163ffffffff1660e01b815260040160206040518083038186803b1580156103f757600080fd5b505afa15801561040b573d6000803e3d6000fd5b505050506040513d602081101561042157600080fd5b50516040805163313ce56760e01b815290516001600160a01b039092169163313ce56791600480820192602092909190829003018186803b15801561046557600080fd5b505afa158015610479573d6000803e3d6000fd5b505050506040513d602081101561048f57600080fd5b50516040805163d21220a760e01b8152905160ff90921692506000916001600160a01b0386169163d21220a7916004808301926020929190829003018186803b1580156104db57600080fd5b505afa1580156104ef573d6000803e3d6000fd5b505050506040513d602081101561050557600080fd5b50516040805163313ce56760e01b815290516001600160a01b039092169163313ce56791600480820192602092909190829003018186803b15801561054957600080fd5b505afa15801561055d573d6000803e3d6000fd5b505050506040513d602081101561057357600080fd5b50516040805163313ce56760e01b8152905160ff9092169250600091610603916001600160a01b0388169163313ce56791600480820192602092909190829003018186803b1580156105c457600080fd5b505afa1580156105d8573d6000803e3d6000fd5b505050506040513d60208110156105ee57600080fd5b505160ff166105fd858561091a565b90610974565b9050600080866001600160a01b0316630902f1ac6040518163ffffffff1660e01b815260040160606040518083038186803b15801561064157600080fd5b505afa158015610655573d6000803e3d6000fd5b505050506040513d606081101561066b57600080fd5b5080516020909101516001600160701b039182169350169050610696600a84900a61030284846106e9565b979650505050505050565b60006106bf60026106b96106b4856103bb565b6109b6565b906106e9565b92915050565b7f000000000000000000000000000000000000000000000000000000000000000081565b6000826106f8575060006106bf565b8282028284828161070557fe5b04146107425760405162461bcd60e51b8152600401808060200182810382526021815260200180610c876021913960400191505060405180910390fd5b9392505050565b600061074283836040518060400160405280601a81526020017f536166654d6174683a206469766973696f6e206279207a65726f000000000000815250610a20565b610793610c4e565b600082116107d25760405162461bcd60e51b8152600401808060200182810382526026815260200180610c616026913960400191505060405180910390fd5b826107ec57506040805160208101909152600081526106bf565b71ffffffffffffffffffffffffffffffffffff831161089357600082607085901b8161081457fe5b0490506001600160e01b03811115610873576040805162461bcd60e51b815260206004820152601e60248201527f4669786564506f696e743a3a6672616374696f6e3a206f766572666c6f770000604482015290519081900360640190fd5b6040518060200160405280826001600160e01b03168152509150506106bf565b60006108a484600160701b85610ac2565b90506001600160e01b03811115610873576040805162461bcd60e51b815260206004820152601e60248201527f4669786564506f696e743a3a6672616374696f6e3a206f766572666c6f770000604482015290519081900360640190fd5b516612725dd1d243ab6001600160e01b039091160490565b600082820183811015610742576040805162461bcd60e51b815260206004820152601b60248201527f536166654d6174683a206164646974696f6e206f766572666c6f770000000000604482015290519081900360640190fd5b600061074283836040518060400160405280601e81526020017f536166654d6174683a207375627472616374696f6e206f766572666c6f770000815250610b57565b60006003821115610a1257508060006109da6109d3836002610749565b600161091a565b90505b81811015610a0c57809150610a056109fe6109f88584610749565b8361091a565b6002610749565b90506109dd565b5061030e565b811561030e57506001919050565b60008183610aac5760405162461bcd60e51b81526004018080602001828103825283818151815260200191508051906020019080838360005b83811015610a71578181015183820152602001610a59565b50505050905090810190601f168015610a9e5780820380516001836020036101000a031916815260200191505b509250505060405180910390fd5b506000838581610ab857fe5b0495945050505050565b6000806000610ad18686610bb1565b9150915060008480610adf57fe5b868809905082811115610af3576001820391505b8083039250848210610b4c576040805162461bcd60e51b815260206004820152601a60248201527f46756c6c4d6174683a3a6d756c4469763a206f766572666c6f77000000000000604482015290519081900360640190fd5b610696838387610bde565b60008184841115610ba95760405162461bcd60e51b8152602060048201818152835160248401528351909283926044909101919085019080838360008315610a71578181015183820152602001610a59565b505050900390565b6000808060001984860990508385029250828103915082811015610bd6576001820391505b509250929050565b60008181038216808381610bee57fe5b049250808581610bfa57fe5b049450808160000381610c0957fe5b60028581038087028203028087028203028087028203028087028203028087028203028087028203029586029003909402930460010193909302939093010292915050565b6040805160208101909152600081529056fe4669786564506f696e743a3a6672616374696f6e3a206469766973696f6e206279207a65726f536166654d6174683a206d756c7469706c69636174696f6e206f766572666c6f77a2646970667358221220689744b572d82ce565cabb6989ebb0f7495b26c8e7489243618c606e62e43b8a64736f6c63430007050033",
          "opcodes": "PUSH1 0xA0 PUSH1 0x40 MSTORE CALLVALUE DUP1 ISZERO PUSH2 0x10 JUMPI PUSH1 0x0 DUP1 REVERT JUMPDEST POP PUSH1 0x40 MLOAD PUSH2 0xD61 CODESIZE SUB DUP1 PUSH2 0xD61 DUP4 CODECOPY DUP2 DUP2 ADD PUSH1 0x40 MSTORE PUSH1 0x20 DUP2 LT ISZERO PUSH2 0x33 JUMPI PUSH1 0x0 DUP1 REVERT JUMPDEST POP MLOAD PUSH1 0x1 PUSH1 0x1 PUSH1 0xA0 SHL SUB DUP2 AND PUSH2 0x48 JUMPI PUSH1 0x0 DUP1 REVERT JUMPDEST PUSH1 0x60 DUP2 SWAP1 SHL PUSH1 0x1 PUSH1 0x1 PUSH1 0x60 SHL SUB NOT AND PUSH1 0x80 MSTORE PUSH1 0x1 PUSH1 0x1 PUSH1 0xA0 SHL SUB AND PUSH2 0xCDD PUSH2 0x84 PUSH1 0x0 CODECOPY DUP1 PUSH2 0x1D1 MSTORE DUP1 PUSH2 0x26F MSTORE DUP1 PUSH2 0x6C7 MSTORE POP PUSH2 0xCDD PUSH1 0x0 RETURN INVALID PUSH1 0x80 PUSH1 0x40 MSTORE CALLVALUE DUP1 ISZERO PUSH2 0x10 JUMPI PUSH1 0x0 DUP1 REVERT JUMPDEST POP PUSH1 0x4 CALLDATASIZE LT PUSH2 0x57 JUMPI PUSH1 0x0 CALLDATALOAD PUSH1 0xE0 SHR DUP1 PUSH4 0x32DA80A3 EQ PUSH2 0x5C JUMPI DUP1 PUSH4 0x4249719F EQ PUSH2 0x94 JUMPI DUP1 PUSH4 0x490084EF EQ PUSH2 0xC0 JUMPI DUP1 PUSH4 0x68637549 EQ PUSH2 0xE6 JUMPI DUP1 PUSH4 0xD632FD1D EQ PUSH2 0x10C JUMPI JUMPDEST PUSH1 0x0 DUP1 REVERT JUMPDEST PUSH2 0x82 PUSH1 0x4 DUP1 CALLDATASIZE SUB PUSH1 0x20 DUP2 LT ISZERO PUSH2 0x72 JUMPI PUSH1 0x0 DUP1 REVERT JUMPDEST POP CALLDATALOAD PUSH1 0x1 PUSH1 0x1 PUSH1 0xA0 SHL SUB AND PUSH2 0x130 JUMP JUMPDEST PUSH1 0x40 DUP1 MLOAD SWAP2 DUP3 MSTORE MLOAD SWAP1 DUP2 SWAP1 SUB PUSH1 0x20 ADD SWAP1 RETURN JUMPDEST PUSH2 0x82 PUSH1 0x4 DUP1 CALLDATASIZE SUB PUSH1 0x40 DUP2 LT ISZERO PUSH2 0xAA JUMPI PUSH1 0x0 DUP1 REVERT JUMPDEST POP PUSH1 0x1 PUSH1 0x1 PUSH1 0xA0 SHL SUB DUP2 CALLDATALOAD AND SWAP1 PUSH1 0x20 ADD CALLDATALOAD PUSH2 0x313 JUMP JUMPDEST PUSH2 0x82 PUSH1 0x4 DUP1 CALLDATASIZE SUB PUSH1 0x20 DUP2 LT ISZERO PUSH2 0xD6 JUMPI PUSH1 0x0 DUP1 REVERT JUMPDEST POP CALLDATALOAD PUSH1 0x1 PUSH1 0x1 PUSH1 0xA0 SHL SUB AND PUSH2 0x3BB JUMP JUMPDEST PUSH2 0x82 PUSH1 0x4 DUP1 CALLDATASIZE SUB PUSH1 0x20 DUP2 LT ISZERO PUSH2 0xFC JUMPI PUSH1 0x0 DUP1 REVERT JUMPDEST POP CALLDATALOAD PUSH1 0x1 PUSH1 0x1 PUSH1 0xA0 SHL SUB AND PUSH2 0x6A1 JUMP JUMPDEST PUSH2 0x114 PUSH2 0x6C5 JUMP JUMPDEST PUSH1 0x40 DUP1 MLOAD PUSH1 0x1 PUSH1 0x1 PUSH1 0xA0 SHL SUB SWAP1 SWAP3 AND DUP3 MSTORE MLOAD SWAP1 DUP2 SWAP1 SUB PUSH1 0x20 ADD SWAP1 RETURN JUMPDEST PUSH1 0x0 DUP1 PUSH1 0x0 DUP4 PUSH1 0x1 PUSH1 0x1 PUSH1 0xA0 SHL SUB AND PUSH4 0x902F1AC PUSH1 0x40 MLOAD DUP2 PUSH4 0xFFFFFFFF AND PUSH1 0xE0 SHL DUP2 MSTORE PUSH1 0x4 ADD PUSH1 0x60 PUSH1 0x40 MLOAD DUP1 DUP4 SUB DUP2 DUP7 DUP1 EXTCODESIZE ISZERO DUP1 ISZERO PUSH2 0x16E JUMPI PUSH1 0x0 DUP1 REVERT JUMPDEST POP GAS STATICCALL ISZERO DUP1 ISZERO PUSH2 0x182 JUMPI RETURNDATASIZE PUSH1 0x0 DUP1 RETURNDATACOPY RETURNDATASIZE PUSH1 0x0 REVERT JUMPDEST POP POP POP POP PUSH1 0x40 MLOAD RETURNDATASIZE PUSH1 0x60 DUP2 LT ISZERO PUSH2 0x198 JUMPI PUSH1 0x0 DUP1 REVERT JUMPDEST POP DUP1 MLOAD PUSH1 0x20 SWAP2 DUP3 ADD MLOAD PUSH1 0x40 DUP1 MLOAD PUSH4 0xDFE1681 PUSH1 0xE0 SHL DUP2 MSTORE SWAP1 MLOAD PUSH1 0x1 PUSH1 0x1 PUSH1 0x70 SHL SUB SWAP4 DUP5 AND SWAP7 POP SWAP3 SWAP1 SWAP2 AND SWAP4 POP PUSH1 0x0 SWAP3 PUSH1 0x1 PUSH1 0x1 PUSH1 0xA0 SHL SUB PUSH32 0x0 DUP2 AND SWAP4 SWAP1 DUP10 AND SWAP3 PUSH4 0xDFE1681 SWAP3 PUSH1 0x4 DUP1 DUP4 ADD SWAP4 SWAP2 SWAP3 DUP3 SWAP1 SUB ADD DUP2 DUP7 DUP1 EXTCODESIZE ISZERO DUP1 ISZERO PUSH2 0x219 JUMPI PUSH1 0x0 DUP1 REVERT JUMPDEST POP GAS STATICCALL ISZERO DUP1 ISZERO PUSH2 0x22D JUMPI RETURNDATASIZE PUSH1 0x0 DUP1 RETURNDATACOPY RETURNDATASIZE PUSH1 0x0 REVERT JUMPDEST POP POP POP POP PUSH1 0x40 MLOAD RETURNDATASIZE PUSH1 0x20 DUP2 LT ISZERO PUSH2 0x243 JUMPI PUSH1 0x0 DUP1 REVERT JUMPDEST POP MLOAD PUSH1 0x1 PUSH1 0x1 PUSH1 0xA0 SHL SUB AND EQ ISZERO PUSH2 0x25B JUMPI POP DUP1 PUSH2 0x25E JUMP JUMPDEST POP DUP2 JUMPDEST PUSH2 0x308 PUSH2 0x26A DUP7 PUSH2 0x6A1 JUMP JUMPDEST PUSH2 0x302 PUSH32 0x0 PUSH1 0x1 PUSH1 0x1 PUSH1 0xA0 SHL SUB AND PUSH4 0x313CE567 PUSH1 0x40 MLOAD DUP2 PUSH4 0xFFFFFFFF AND PUSH1 0xE0 SHL DUP2 MSTORE PUSH1 0x4 ADD PUSH1 0x20 PUSH1 0x40 MLOAD DUP1 DUP4 SUB DUP2 DUP7 DUP1 EXTCODESIZE ISZERO DUP1 ISZERO PUSH2 0x2C6 JUMPI PUSH1 0x0 DUP1 REVERT JUMPDEST POP GAS STATICCALL ISZERO DUP1 ISZERO PUSH2 0x2DA JUMPI RETURNDATASIZE PUSH1 0x0 DUP1 RETURNDATACOPY RETURNDATASIZE PUSH1 0x0 REVERT JUMPDEST POP POP POP POP PUSH1 0x40 MLOAD RETURNDATASIZE PUSH1 0x20 DUP2 LT ISZERO PUSH2 0x2F0 JUMPI PUSH1 0x0 DUP1 REVERT JUMPDEST POP MLOAD DUP5 SWAP1 PUSH1 0xFF AND PUSH1 0xA EXP PUSH1 0x2 MUL PUSH2 0x6E9 JUMP JUMPDEST SWAP1 PUSH2 0x749 JUMP JUMPDEST SWAP4 POP POP POP POP JUMPDEST SWAP2 SWAP1 POP JUMP JUMPDEST PUSH1 0x0 DUP1 PUSH2 0x31F DUP5 PUSH2 0x6A1 JUMP JUMPDEST SWAP1 POP PUSH1 0x0 DUP5 PUSH1 0x1 PUSH1 0x1 PUSH1 0xA0 SHL SUB AND PUSH4 0x18160DDD PUSH1 0x40 MLOAD DUP2 PUSH4 0xFFFFFFFF AND PUSH1 0xE0 SHL DUP2 MSTORE PUSH1 0x4 ADD PUSH1 0x20 PUSH1 0x40 MLOAD DUP1 DUP4 SUB DUP2 DUP7 DUP1 EXTCODESIZE ISZERO DUP1 ISZERO PUSH2 0x35C JUMPI PUSH1 0x0 DUP1 REVERT JUMPDEST POP GAS STATICCALL ISZERO DUP1 ISZERO PUSH2 0x370 JUMPI RETURNDATASIZE PUSH1 0x0 DUP1 RETURNDATACOPY RETURNDATASIZE PUSH1 0x0 REVERT JUMPDEST POP POP POP POP PUSH1 0x40 MLOAD RETURNDATASIZE PUSH1 0x20 DUP2 LT ISZERO PUSH2 0x386 JUMPI PUSH1 0x0 DUP1 REVERT JUMPDEST POP MLOAD SWAP1 POP PUSH2 0x3B2 PUSH8 0xDE0B6B3A7640000 PUSH2 0x302 PUSH2 0x3AB PUSH2 0x3A6 DUP9 DUP7 PUSH2 0x78B JUMP JUMPDEST PUSH2 0x902 JUMP JUMPDEST DUP6 SWAP1 PUSH2 0x6E9 JUMP JUMPDEST SWAP6 SWAP5 POP POP POP POP POP JUMP JUMPDEST PUSH1 0x0 DUP1 DUP3 PUSH1 0x1 PUSH1 0x1 PUSH1 0xA0 SHL SUB AND PUSH4 0xDFE1681 PUSH1 0x40 MLOAD DUP2 PUSH4 0xFFFFFFFF AND PUSH1 0xE0 SHL DUP2 MSTORE PUSH1 0x4 ADD PUSH1 0x20 PUSH1 0x40 MLOAD DUP1 DUP4 SUB DUP2 DUP7 DUP1 EXTCODESIZE ISZERO DUP1 ISZERO PUSH2 0x3F7 JUMPI PUSH1 0x0 DUP1 REVERT JUMPDEST POP GAS STATICCALL ISZERO DUP1 ISZERO PUSH2 0x40B JUMPI RETURNDATASIZE PUSH1 0x0 DUP1 RETURNDATACOPY RETURNDATASIZE PUSH1 0x0 REVERT JUMPDEST POP POP POP POP PUSH1 0x40 MLOAD RETURNDATASIZE PUSH1 0x20 DUP2 LT ISZERO PUSH2 0x421 JUMPI PUSH1 0x0 DUP1 REVERT JUMPDEST POP MLOAD PUSH1 0x40 DUP1 MLOAD PUSH4 0x313CE567 PUSH1 0xE0 SHL DUP2 MSTORE SWAP1 MLOAD PUSH1 0x1 PUSH1 0x1 PUSH1 0xA0 SHL SUB SWAP1 SWAP3 AND SWAP2 PUSH4 0x313CE567 SWAP2 PUSH1 0x4 DUP1 DUP3 ADD SWAP3 PUSH1 0x20 SWAP3 SWAP1 SWAP2 SWAP1 DUP3 SWAP1 SUB ADD DUP2 DUP7 DUP1 EXTCODESIZE ISZERO DUP1 ISZERO PUSH2 0x465 JUMPI PUSH1 0x0 DUP1 REVERT JUMPDEST POP GAS STATICCALL ISZERO DUP1 ISZERO PUSH2 0x479 JUMPI RETURNDATASIZE PUSH1 0x0 DUP1 RETURNDATACOPY RETURNDATASIZE PUSH1 0x0 REVERT JUMPDEST POP POP POP POP PUSH1 0x40 MLOAD RETURNDATASIZE PUSH1 0x20 DUP2 LT ISZERO PUSH2 0x48F JUMPI PUSH1 0x0 DUP1 REVERT JUMPDEST POP MLOAD PUSH1 0x40 DUP1 MLOAD PUSH4 0xD21220A7 PUSH1 0xE0 SHL DUP2 MSTORE SWAP1 MLOAD PUSH1 0xFF SWAP1 SWAP3 AND SWAP3 POP PUSH1 0x0 SWAP2 PUSH1 0x1 PUSH1 0x1 PUSH1 0xA0 SHL SUB DUP7 AND SWAP2 PUSH4 0xD21220A7 SWAP2 PUSH1 0x4 DUP1 DUP4 ADD SWAP3 PUSH1 0x20 SWAP3 SWAP2 SWAP1 DUP3 SWAP1 SUB ADD DUP2 DUP7 DUP1 EXTCODESIZE ISZERO DUP1 ISZERO PUSH2 0x4DB JUMPI PUSH1 0x0 DUP1 REVERT JUMPDEST POP GAS STATICCALL ISZERO DUP1 ISZERO PUSH2 0x4EF JUMPI RETURNDATASIZE PUSH1 0x0 DUP1 RETURNDATACOPY RETURNDATASIZE PUSH1 0x0 REVERT JUMPDEST POP POP POP POP PUSH1 0x40 MLOAD RETURNDATASIZE PUSH1 0x20 DUP2 LT ISZERO PUSH2 0x505 JUMPI PUSH1 0x0 DUP1 REVERT JUMPDEST POP MLOAD PUSH1 0x40 DUP1 MLOAD PUSH4 0x313CE567 PUSH1 0xE0 SHL DUP2 MSTORE SWAP1 MLOAD PUSH1 0x1 PUSH1 0x1 PUSH1 0xA0 SHL SUB SWAP1 SWAP3 AND SWAP2 PUSH4 0x313CE567 SWAP2 PUSH1 0x4 DUP1 DUP3 ADD SWAP3 PUSH1 0x20 SWAP3 SWAP1 SWAP2 SWAP1 DUP3 SWAP1 SUB ADD DUP2 DUP7 DUP1 EXTCODESIZE ISZERO DUP1 ISZERO PUSH2 0x549 JUMPI PUSH1 0x0 DUP1 REVERT JUMPDEST POP GAS STATICCALL ISZERO DUP1 ISZERO PUSH2 0x55D JUMPI RETURNDATASIZE PUSH1 0x0 DUP1 RETURNDATACOPY RETURNDATASIZE PUSH1 0x0 REVERT JUMPDEST POP POP POP POP PUSH1 0x40 MLOAD RETURNDATASIZE PUSH1 0x20 DUP2 LT ISZERO PUSH2 0x573 JUMPI PUSH1 0x0 DUP1 REVERT JUMPDEST POP MLOAD PUSH1 0x40 DUP1 MLOAD PUSH4 0x313CE567 PUSH1 0xE0 SHL DUP2 MSTORE SWAP1 MLOAD PUSH1 0xFF SWAP1 SWAP3 AND SWAP3 POP PUSH1 0x0 SWAP2 PUSH2 0x603 SWAP2 PUSH1 0x1 PUSH1 0x1 PUSH1 0xA0 SHL SUB DUP9 AND SWAP2 PUSH4 0x313CE567 SWAP2 PUSH1 0x4 DUP1 DUP3 ADD SWAP3 PUSH1 0x20 SWAP3 SWAP1 SWAP2 SWAP1 DUP3 SWAP1 SUB ADD DUP2 DUP7 DUP1 EXTCODESIZE ISZERO DUP1 ISZERO PUSH2 0x5C4 JUMPI PUSH1 0x0 DUP1 REVERT JUMPDEST POP GAS STATICCALL ISZERO DUP1 ISZERO PUSH2 0x5D8 JUMPI RETURNDATASIZE PUSH1 0x0 DUP1 RETURNDATACOPY RETURNDATASIZE PUSH1 0x0 REVERT JUMPDEST POP POP POP POP PUSH1 0x40 MLOAD RETURNDATASIZE PUSH1 0x20 DUP2 LT ISZERO PUSH2 0x5EE JUMPI PUSH1 0x0 DUP1 REVERT JUMPDEST POP MLOAD PUSH1 0xFF AND PUSH2 0x5FD DUP6 DUP6 PUSH2 0x91A JUMP JUMPDEST SWAP1 PUSH2 0x974 JUMP JUMPDEST SWAP1 POP PUSH1 0x0 DUP1 DUP7 PUSH1 0x1 PUSH1 0x1 PUSH1 0xA0 SHL SUB AND PUSH4 0x902F1AC PUSH1 0x40 MLOAD DUP2 PUSH4 0xFFFFFFFF AND PUSH1 0xE0 SHL DUP2 MSTORE PUSH1 0x4 ADD PUSH1 0x60 PUSH1 0x40 MLOAD DUP1 DUP4 SUB DUP2 DUP7 DUP1 EXTCODESIZE ISZERO DUP1 ISZERO PUSH2 0x641 JUMPI PUSH1 0x0 DUP1 REVERT JUMPDEST POP GAS STATICCALL ISZERO DUP1 ISZERO PUSH2 0x655 JUMPI RETURNDATASIZE PUSH1 0x0 DUP1 RETURNDATACOPY RETURNDATASIZE PUSH1 0x0 REVERT JUMPDEST POP POP POP POP PUSH1 0x40 MLOAD RETURNDATASIZE PUSH1 0x60 DUP2 LT ISZERO PUSH2 0x66B JUMPI PUSH1 0x0 DUP1 REVERT JUMPDEST POP DUP1 MLOAD PUSH1 0x20 SWAP1 SWAP2 ADD MLOAD PUSH1 0x1 PUSH1 0x1 PUSH1 0x70 SHL SUB SWAP2 DUP3 AND SWAP4 POP AND SWAP1 POP PUSH2 0x696 PUSH1 0xA DUP5 SWAP1 EXP PUSH2 0x302 DUP5 DUP5 PUSH2 0x6E9 JUMP JUMPDEST SWAP8 SWAP7 POP POP POP POP POP POP POP JUMP JUMPDEST PUSH1 0x0 PUSH2 0x6BF PUSH1 0x2 PUSH2 0x6B9 PUSH2 0x6B4 DUP6 PUSH2 0x3BB JUMP JUMPDEST PUSH2 0x9B6 JUMP JUMPDEST SWAP1 PUSH2 0x6E9 JUMP JUMPDEST SWAP3 SWAP2 POP POP JUMP JUMPDEST PUSH32 0x0 DUP2 JUMP JUMPDEST PUSH1 0x0 DUP3 PUSH2 0x6F8 JUMPI POP PUSH1 0x0 PUSH2 0x6BF JUMP JUMPDEST DUP3 DUP3 MUL DUP3 DUP5 DUP3 DUP2 PUSH2 0x705 JUMPI INVALID JUMPDEST DIV EQ PUSH2 0x742 JUMPI PUSH1 0x40 MLOAD PUSH3 0x461BCD PUSH1 0xE5 SHL DUP2 MSTORE PUSH1 0x4 ADD DUP1 DUP1 PUSH1 0x20 ADD DUP3 DUP2 SUB DUP3 MSTORE PUSH1 0x21 DUP2 MSTORE PUSH1 0x20 ADD DUP1 PUSH2 0xC87 PUSH1 0x21 SWAP2 CODECOPY PUSH1 0x40 ADD SWAP2 POP POP PUSH1 0x40 MLOAD DUP1 SWAP2 SUB SWAP1 REVERT JUMPDEST SWAP4 SWAP3 POP POP POP JUMP JUMPDEST PUSH1 0x0 PUSH2 0x742 DUP4 DUP4 PUSH1 0x40 MLOAD DUP1 PUSH1 0x40 ADD PUSH1 0x40 MSTORE DUP1 PUSH1 0x1A DUP2 MSTORE PUSH1 0x20 ADD PUSH32 0x536166654D6174683A206469766973696F6E206279207A65726F000000000000 DUP2 MSTORE POP PUSH2 0xA20 JUMP JUMPDEST PUSH2 0x793 PUSH2 0xC4E JUMP JUMPDEST PUSH1 0x0 DUP3 GT PUSH2 0x7D2 JUMPI PUSH1 0x40 MLOAD PUSH3 0x461BCD PUSH1 0xE5 SHL DUP2 MSTORE PUSH1 0x4 ADD DUP1 DUP1 PUSH1 0x20 ADD DUP3 DUP2 SUB DUP3 MSTORE PUSH1 0x26 DUP2 MSTORE PUSH1 0x20 ADD DUP1 PUSH2 0xC61 PUSH1 0x26 SWAP2 CODECOPY PUSH1 0x40 ADD SWAP2 POP POP PUSH1 0x40 MLOAD DUP1 SWAP2 SUB SWAP1 REVERT JUMPDEST DUP3 PUSH2 0x7EC JUMPI POP PUSH1 0x40 DUP1 MLOAD PUSH1 0x20 DUP2 ADD SWAP1 SWAP2 MSTORE PUSH1 0x0 DUP2 MSTORE PUSH2 0x6BF JUMP JUMPDEST PUSH18 0xFFFFFFFFFFFFFFFFFFFFFFFFFFFFFFFFFFFF DUP4 GT PUSH2 0x893 JUMPI PUSH1 0x0 DUP3 PUSH1 0x70 DUP6 SWAP1 SHL DUP2 PUSH2 0x814 JUMPI INVALID JUMPDEST DIV SWAP1 POP PUSH1 0x1 PUSH1 0x1 PUSH1 0xE0 SHL SUB DUP2 GT ISZERO PUSH2 0x873 JUMPI PUSH1 0x40 DUP1 MLOAD PUSH3 0x461BCD PUSH1 0xE5 SHL DUP2 MSTORE PUSH1 0x20 PUSH1 0x4 DUP3 ADD MSTORE PUSH1 0x1E PUSH1 0x24 DUP3 ADD MSTORE PUSH32 0x4669786564506F696E743A3A6672616374696F6E3A206F766572666C6F770000 PUSH1 0x44 DUP3 ADD MSTORE SWAP1 MLOAD SWAP1 DUP2 SWAP1 SUB PUSH1 0x64 ADD SWAP1 REVERT JUMPDEST PUSH1 0x40 MLOAD DUP1 PUSH1 0x20 ADD PUSH1 0x40 MSTORE DUP1 DUP3 PUSH1 0x1 PUSH1 0x1 PUSH1 0xE0 SHL SUB AND DUP2 MSTORE POP SWAP2 POP POP PUSH2 0x6BF JUMP JUMPDEST PUSH1 0x0 PUSH2 0x8A4 DUP5 PUSH1 0x1 PUSH1 0x70 SHL DUP6 PUSH2 0xAC2 JUMP JUMPDEST SWAP1 POP PUSH1 0x1 PUSH1 0x1 PUSH1 0xE0 SHL SUB DUP2 GT ISZERO PUSH2 0x873 JUMPI PUSH1 0x40 DUP1 MLOAD PUSH3 0x461BCD PUSH1 0xE5 SHL DUP2 MSTORE PUSH1 0x20 PUSH1 0x4 DUP3 ADD MSTORE PUSH1 0x1E PUSH1 0x24 DUP3 ADD MSTORE PUSH32 0x4669786564506F696E743A3A6672616374696F6E3A206F766572666C6F770000 PUSH1 0x44 DUP3 ADD MSTORE SWAP1 MLOAD SWAP1 DUP2 SWAP1 SUB PUSH1 0x64 ADD SWAP1 REVERT JUMPDEST MLOAD PUSH7 0x12725DD1D243AB PUSH1 0x1 PUSH1 0x1 PUSH1 0xE0 SHL SUB SWAP1 SWAP2 AND DIV SWAP1 JUMP JUMPDEST PUSH1 0x0 DUP3 DUP3 ADD DUP4 DUP2 LT ISZERO PUSH2 0x742 JUMPI PUSH1 0x40 DUP1 MLOAD PUSH3 0x461BCD PUSH1 0xE5 SHL DUP2 MSTORE PUSH1 0x20 PUSH1 0x4 DUP3 ADD MSTORE PUSH1 0x1B PUSH1 0x24 DUP3 ADD MSTORE PUSH32 0x536166654D6174683A206164646974696F6E206F766572666C6F770000000000 PUSH1 0x44 DUP3 ADD MSTORE SWAP1 MLOAD SWAP1 DUP2 SWAP1 SUB PUSH1 0x64 ADD SWAP1 REVERT JUMPDEST PUSH1 0x0 PUSH2 0x742 DUP4 DUP4 PUSH1 0x40 MLOAD DUP1 PUSH1 0x40 ADD PUSH1 0x40 MSTORE DUP1 PUSH1 0x1E DUP2 MSTORE PUSH1 0x20 ADD PUSH32 0x536166654D6174683A207375627472616374696F6E206F766572666C6F770000 DUP2 MSTORE POP PUSH2 0xB57 JUMP JUMPDEST PUSH1 0x0 PUSH1 0x3 DUP3 GT ISZERO PUSH2 0xA12 JUMPI POP DUP1 PUSH1 0x0 PUSH2 0x9DA PUSH2 0x9D3 DUP4 PUSH1 0x2 PUSH2 0x749 JUMP JUMPDEST PUSH1 0x1 PUSH2 0x91A JUMP JUMPDEST SWAP1 POP JUMPDEST DUP2 DUP2 LT ISZERO PUSH2 0xA0C JUMPI DUP1 SWAP2 POP PUSH2 0xA05 PUSH2 0x9FE PUSH2 0x9F8 DUP6 DUP5 PUSH2 0x749 JUMP JUMPDEST DUP4 PUSH2 0x91A JUMP JUMPDEST PUSH1 0x2 PUSH2 0x749 JUMP JUMPDEST SWAP1 POP PUSH2 0x9DD JUMP JUMPDEST POP PUSH2 0x30E JUMP JUMPDEST DUP2 ISZERO PUSH2 0x30E JUMPI POP PUSH1 0x1 SWAP2 SWAP1 POP JUMP JUMPDEST PUSH1 0x0 DUP2 DUP4 PUSH2 0xAAC JUMPI PUSH1 0x40 MLOAD PUSH3 0x461BCD PUSH1 0xE5 SHL DUP2 MSTORE PUSH1 0x4 ADD DUP1 DUP1 PUSH1 0x20 ADD DUP3 DUP2 SUB DUP3 MSTORE DUP4 DUP2 DUP2 MLOAD DUP2 MSTORE PUSH1 0x20 ADD SWAP2 POP DUP1 MLOAD SWAP1 PUSH1 0x20 ADD SWAP1 DUP1 DUP4 DUP4 PUSH1 0x0 JUMPDEST DUP4 DUP2 LT ISZERO PUSH2 0xA71 JUMPI DUP2 DUP2 ADD MLOAD DUP4 DUP3 ADD MSTORE PUSH1 0x20 ADD PUSH2 0xA59 JUMP JUMPDEST POP POP POP POP SWAP1 POP SWAP1 DUP2 ADD SWAP1 PUSH1 0x1F AND DUP1 ISZERO PUSH2 0xA9E JUMPI DUP1 DUP3 SUB DUP1 MLOAD PUSH1 0x1 DUP4 PUSH1 0x20 SUB PUSH2 0x100 EXP SUB NOT AND DUP2 MSTORE PUSH1 0x20 ADD SWAP2 POP JUMPDEST POP SWAP3 POP POP POP PUSH1 0x40 MLOAD DUP1 SWAP2 SUB SWAP1 REVERT JUMPDEST POP PUSH1 0x0 DUP4 DUP6 DUP2 PUSH2 0xAB8 JUMPI INVALID JUMPDEST DIV SWAP6 SWAP5 POP POP POP POP POP JUMP JUMPDEST PUSH1 0x0 DUP1 PUSH1 0x0 PUSH2 0xAD1 DUP7 DUP7 PUSH2 0xBB1 JUMP JUMPDEST SWAP2 POP SWAP2 POP PUSH1 0x0 DUP5 DUP1 PUSH2 0xADF JUMPI INVALID JUMPDEST DUP7 DUP9 MULMOD SWAP1 POP DUP3 DUP2 GT ISZERO PUSH2 0xAF3 JUMPI PUSH1 0x1 DUP3 SUB SWAP2 POP JUMPDEST DUP1 DUP4 SUB SWAP3 POP DUP5 DUP3 LT PUSH2 0xB4C JUMPI PUSH1 0x40 DUP1 MLOAD PUSH3 0x461BCD PUSH1 0xE5 SHL DUP2 MSTORE PUSH1 0x20 PUSH1 0x4 DUP3 ADD MSTORE PUSH1 0x1A PUSH1 0x24 DUP3 ADD MSTORE PUSH32 0x46756C6C4D6174683A3A6D756C4469763A206F766572666C6F77000000000000 PUSH1 0x44 DUP3 ADD MSTORE SWAP1 MLOAD SWAP1 DUP2 SWAP1 SUB PUSH1 0x64 ADD SWAP1 REVERT JUMPDEST PUSH2 0x696 DUP4 DUP4 DUP8 PUSH2 0xBDE JUMP JUMPDEST PUSH1 0x0 DUP2 DUP5 DUP5 GT ISZERO PUSH2 0xBA9 JUMPI PUSH1 0x40 MLOAD PUSH3 0x461BCD PUSH1 0xE5 SHL DUP2 MSTORE PUSH1 0x20 PUSH1 0x4 DUP3 ADD DUP2 DUP2 MSTORE DUP4 MLOAD PUSH1 0x24 DUP5 ADD MSTORE DUP4 MLOAD SWAP1 SWAP3 DUP4 SWAP3 PUSH1 0x44 SWAP1 SWAP2 ADD SWAP2 SWAP1 DUP6 ADD SWAP1 DUP1 DUP4 DUP4 PUSH1 0x0 DUP4 ISZERO PUSH2 0xA71 JUMPI DUP2 DUP2 ADD MLOAD DUP4 DUP3 ADD MSTORE PUSH1 0x20 ADD PUSH2 0xA59 JUMP JUMPDEST POP POP POP SWAP1 SUB SWAP1 JUMP JUMPDEST PUSH1 0x0 DUP1 DUP1 PUSH1 0x0 NOT DUP5 DUP7 MULMOD SWAP1 POP DUP4 DUP6 MUL SWAP3 POP DUP3 DUP2 SUB SWAP2 POP DUP3 DUP2 LT ISZERO PUSH2 0xBD6 JUMPI PUSH1 0x1 DUP3 SUB SWAP2 POP JUMPDEST POP SWAP3 POP SWAP3 SWAP1 POP JUMP JUMPDEST PUSH1 0x0 DUP2 DUP2 SUB DUP3 AND DUP1 DUP4 DUP2 PUSH2 0xBEE JUMPI INVALID JUMPDEST DIV SWAP3 POP DUP1 DUP6 DUP2 PUSH2 0xBFA JUMPI INVALID JUMPDEST DIV SWAP5 POP DUP1 DUP2 PUSH1 0x0 SUB DUP2 PUSH2 0xC09 JUMPI INVALID JUMPDEST PUSH1 0x2 DUP6 DUP2 SUB DUP1 DUP8 MUL DUP3 SUB MUL DUP1 DUP8 MUL DUP3 SUB MUL DUP1 DUP8 MUL DUP3 SUB MUL DUP1 DUP8 MUL DUP3 SUB MUL DUP1 DUP8 MUL DUP3 SUB MUL DUP1 DUP8 MUL DUP3 SUB MUL SWAP6 DUP7 MUL SWAP1 SUB SWAP1 SWAP5 MUL SWAP4 DIV PUSH1 0x1 ADD SWAP4 SWAP1 SWAP4 MUL SWAP4 SWAP1 SWAP4 ADD MUL SWAP3 SWAP2 POP POP JUMP JUMPDEST PUSH1 0x40 DUP1 MLOAD PUSH1 0x20 DUP2 ADD SWAP1 SWAP2 MSTORE PUSH1 0x0 DUP2 MSTORE SWAP1 JUMP INVALID CHAINID PUSH10 0x786564506F696E743A3A PUSH7 0x72616374696F6E GASPRICE KECCAK256 PUSH5 0x6976697369 PUSH16 0x6E206279207A65726F536166654D6174 PUSH9 0x3A206D756C7469706C PUSH10 0x636174696F6E206F7665 PUSH19 0x666C6F77A2646970667358221220689744B572 0xD8 0x2C 0xE5 PUSH6 0xCABB6989EBB0 0xF7 0x49 JUMPDEST 0x26 0xC8 0xE7 0x48 SWAP3 NUMBER PUSH2 0x8C60 PUSH15 0x62E43B8A64736F6C63430007050033 "
        },
        "methodIdentifiers": {
          "PIP()": "d632fd1d",
          "getKValue(address)": "490084ef",
          "getTotalValue(address)": "68637549",
          "markdown(address)": "32da80a3",
          "valuation(address,uint256)": "4249719f"
        }
      }
    }
  }
}