{
  "_format": "hh-sol-artifact-1",
  "contractName": "wPIP",
  "sourceName": "contracts/wOHM.sol",
  "abi": [
    {
      "inputs": [
        {
          "internalType": "address",
          "name": "_staking",
          "type": "address"
        },
        {
          "internalType": "address",
          "name": "_PIP",
          "type": "address"
        },
        {
          "internalType": "address",
          "name": "_sPIP",
          "type": "address"
        }
      ],
      "stateMutability": "nonpayable",
      "type": "constructor"
    },
    {
      "anonymous": false,
      "inputs": [
        {
          "indexed": true,
          "internalType": "address",
          "name": "owner",
          "type": "address"
        },
        {
          "indexed": true,
          "internalType": "address",
          "name": "spender",
          "type": "address"
        },
        {
          "indexed": false,
          "internalType": "uint256",
          "name": "value",
          "type": "uint256"
        }
      ],
      "name": "Approval",
      "type": "event"
    },
    {
      "anonymous": false,
      "inputs": [
        {
          "indexed": true,
          "internalType": "address",
          "name": "from",
          "type": "address"
        },
        {
          "indexed": true,
          "internalType": "address",
          "name": "to",
          "type": "address"
        },
        {
          "indexed": false,
          "internalType": "uint256",
          "name": "value",
          "type": "uint256"
        }
      ],
      "name": "Transfer",
      "type": "event"
    },
    {
      "inputs": [],
      "name": "PIP",
      "outputs": [
        {
          "internalType": "address",
          "name": "",
          "type": "address"
        }
      ],
      "stateMutability": "view",
      "type": "function"
    },
    {
      "inputs": [
        {
          "internalType": "address",
          "name": "owner",
          "type": "address"
        },
        {
          "internalType": "address",
          "name": "spender",
          "type": "address"
        }
      ],
      "name": "allowance",
      "outputs": [
        {
          "internalType": "uint256",
          "name": "",
          "type": "uint256"
        }
      ],
      "stateMutability": "view",
      "type": "function"
    },
    {
      "inputs": [
        {
          "internalType": "address",
          "name": "spender",
          "type": "address"
        },
        {
          "internalType": "uint256",
          "name": "amount",
          "type": "uint256"
        }
      ],
      "name": "approve",
      "outputs": [
        {
          "internalType": "bool",
          "name": "",
          "type": "bool"
        }
      ],
      "stateMutability": "nonpayable",
      "type": "function"
    },
    {
      "inputs": [
        {
          "internalType": "address",
          "name": "account",
          "type": "address"
        }
      ],
      "name": "balanceOf",
      "outputs": [
        {
          "internalType": "uint256",
          "name": "",
          "type": "uint256"
        }
      ],
      "stateMutability": "view",
      "type": "function"
    },
    {
      "inputs": [],
      "name": "decimals",
      "outputs": [
        {
          "internalType": "uint8",
          "name": "",
          "type": "uint8"
        }
      ],
      "stateMutability": "view",
      "type": "function"
    },
    {
      "inputs": [
        {
          "internalType": "address",
          "name": "spender",
          "type": "address"
        },
        {
          "internalType": "uint256",
          "name": "subtractedValue",
          "type": "uint256"
        }
      ],
      "name": "decreaseAllowance",
      "outputs": [
        {
          "internalType": "bool",
          "name": "",
          "type": "bool"
        }
      ],
      "stateMutability": "nonpayable",
      "type": "function"
    },
    {
      "inputs": [
        {
          "internalType": "address",
          "name": "spender",
          "type": "address"
        },
        {
          "internalType": "uint256",
          "name": "addedValue",
          "type": "uint256"
        }
      ],
      "name": "increaseAllowance",
      "outputs": [
        {
          "internalType": "bool",
          "name": "",
          "type": "bool"
        }
      ],
      "stateMutability": "nonpayable",
      "type": "function"
    },
    {
      "inputs": [],
      "name": "name",
      "outputs": [
        {
          "internalType": "string",
          "name": "",
          "type": "string"
        }
      ],
      "stateMutability": "view",
      "type": "function"
    },
    {
      "inputs": [],
      "name": "sPIP",
      "outputs": [
        {
          "internalType": "address",
          "name": "",
          "type": "address"
        }
      ],
      "stateMutability": "view",
      "type": "function"
    },
    {
      "inputs": [
        {
          "internalType": "uint256",
          "name": "_amount",
          "type": "uint256"
        }
      ],
      "name": "sPIPValue",
      "outputs": [
        {
          "internalType": "uint256",
          "name": "",
          "type": "uint256"
        }
      ],
      "stateMutability": "view",
      "type": "function"
    },
    {
      "inputs": [],
      "name": "staking",
      "outputs": [
        {
          "internalType": "address",
          "name": "",
          "type": "address"
        }
      ],
      "stateMutability": "view",
      "type": "function"
    },
    {
      "inputs": [],
      "name": "symbol",
      "outputs": [
        {
          "internalType": "string",
          "name": "",
          "type": "string"
        }
      ],
      "stateMutability": "view",
      "type": "function"
    },
    {
      "inputs": [],
      "name": "totalSupply",
      "outputs": [
        {
          "internalType": "uint256",
          "name": "",
          "type": "uint256"
        }
      ],
      "stateMutability": "view",
      "type": "function"
    },
    {
      "inputs": [
        {
          "internalType": "address",
          "name": "recipient",
          "type": "address"
        },
        {
          "internalType": "uint256",
          "name": "amount",
          "type": "uint256"
        }
      ],
      "name": "transfer",
      "outputs": [
        {
          "internalType": "bool",
          "name": "",
          "type": "bool"
        }
      ],
      "stateMutability": "nonpayable",
      "type": "function"
    },
    {
      "inputs": [
        {
          "internalType": "address",
          "name": "sender",
          "type": "address"
        },
        {
          "internalType": "address",
          "name": "recipient",
          "type": "address"
        },
        {
          "internalType": "uint256",
          "name": "amount",
          "type": "uint256"
        }
      ],
      "name": "transferFrom",
      "outputs": [
        {
          "internalType": "bool",
          "name": "",
          "type": "bool"
        }
      ],
      "stateMutability": "nonpayable",
      "type": "function"
    },
    {
      "inputs": [
        {
          "internalType": "uint256",
          "name": "_amount",
          "type": "uint256"
        }
      ],
      "name": "unwrapToPIP",
      "outputs": [
        {
          "internalType": "uint256",
          "name": "",
          "type": "uint256"
        }
      ],
      "stateMutability": "nonpayable",
      "type": "function"
    },
    {
      "inputs": [
        {
          "internalType": "uint256",
          "name": "_amount",
          "type": "uint256"
        }
      ],
      "name": "unwrapTosPIP",
      "outputs": [
        {
          "internalType": "uint256",
          "name": "",
          "type": "uint256"
        }
      ],
      "stateMutability": "nonpayable",
      "type": "function"
    },
    {
      "inputs": [
        {
          "internalType": "uint256",
          "name": "_amount",
          "type": "uint256"
        }
      ],
      "name": "wPIPValue",
      "outputs": [
        {
          "internalType": "uint256",
          "name": "",
          "type": "uint256"
        }
      ],
      "stateMutability": "view",
      "type": "function"
    },
    {
      "inputs": [
        {
          "internalType": "uint256",
          "name": "_amount",
          "type": "uint256"
        }
      ],
      "name": "wrapFromPIP",
      "outputs": [
        {
          "internalType": "uint256",
          "name": "",
          "type": "uint256"
        }
      ],
      "stateMutability": "nonpayable",
      "type": "function"
    },
    {
      "inputs": [
        {
          "internalType": "uint256",
          "name": "_amount",
          "type": "uint256"
        }
      ],
      "name": "wrapFromsPIP",
      "outputs": [
        {
          "internalType": "uint256",
          "name": "",
          "type": "uint256"
        }
      ],
      "stateMutability": "nonpayable",
      "type": "function"
    }
  ],
  "bytecode": "0x60e06040523480156200001157600080fd5b50604051620017d5380380620017d5833981810160405260608110156200003757600080fd5b50805160208083015160409384015184518086018652600c81526b05772617070656420735049560a41b81850190815286518088019097526005875264077735049560dc1b9487019490945280519495929491939092916200009c916003916200013b565b508051620000b29060049060208401906200013b565b50506005805460ff19166012179055506001600160a01b038316620000d657600080fd5b6001600160601b0319606084901b166080526001600160a01b038216620000fc57600080fd5b6001600160601b0319606083901b1660a0526001600160a01b0381166200012257600080fd5b60601b6001600160601b03191660c05250620001e79050565b828054600181600116156101000203166002900490600052602060002090601f016020900481019282620001735760008555620001be565b82601f106200018e57805160ff1916838001178555620001be565b82800160010185558215620001be579182015b82811115620001be578251825591602001919060010190620001a1565b50620001cc929150620001d0565b5090565b5b80821115620001cc5760008155600101620001d1565b60805160601c60a05160601c60c05160601c61157c62000259600039806109af5280610a555280610a925280610cfa5250806105ae528061066b5280610c155280610c92525080610436528061063a5280610709528061080552806108e15280610ac15280610b7a525061157c6000f3fe608060405234801561001057600080fd5b506004361061012c5760003560e01c806370a08231116100ad578063b1801c8411610071578063b1801c84146103a6578063c2b05fe4146103ae578063d632fd1d146103cb578063dd62ed3e146103d3578063dfdc1cee146104015761012c565b806370a082311461030357806395d89b411461032957806397164f1614610331578063a457c2d71461034e578063a9059cbb1461037a5761012c565b806323b872dd116100f457806323b872dd14610242578063280f008f14610278578063313ce5671461029557806339509351146102b35780634cf088d9146102df5761012c565b80630305aea91461013157806306fdde0314610160578063095ea7b3146101dd57806318160ddd1461021d5780631b3ee34f14610225575b600080fd5b61014e6004803603602081101561014757600080fd5b503561041e565b60408051918252519081900360200190f35b6101686104cc565b6040805160208082528351818301528351919283929083019185019080838360005b838110156101a257818101518382015260200161018a565b50505050905090810190601f1680156101cf5780820380516001836020036101000a031916815260200191505b509250505060405180910390f35b610209600480360360408110156101f357600080fd5b506001600160a01b038135169060200135610562565b604080519115158252519081900360200190f35b61014e610578565b61014e6004803603602081101561023b57600080fd5b503561057e565b6102096004803603606081101561025857600080fd5b506001600160a01b03813581169160208101359091169060400135610795565b61014e6004803603602081101561028e57600080fd5b50356107fe565b61029d6108a0565b6040805160ff9092168252519081900360200190f35b610209600480360360408110156102c957600080fd5b506001600160a01b0381351690602001356108a9565b6102e76108df565b604080516001600160a01b039092168252519081900360200190f35b61014e6004803603602081101561031957600080fd5b50356001600160a01b0316610903565b61016861091e565b61014e6004803603602081101561034757600080fd5b503561097f565b6102096004803603604081101561036457600080fd5b506001600160a01b0381351690602001356109f7565b6102096004803603604081101561039057600080fd5b506001600160a01b038135169060200135610a46565b6102e7610a53565b61014e600480360360208110156103c457600080fd5b5035610a77565b6102e7610c90565b61014e600480360360408110156103e957600080fd5b506001600160a01b0381358116916020013516610cb4565b61014e6004803603602081101561041757600080fd5b5035610cdf565b60006104c661042b6108a0565b60ff16600a0a6104c07f00000000000000000000000000000000000000000000000000000000000000006001600160a01b0316632986c0e56040518163ffffffff1660e01b815260040160206040518083038186803b15801561048d57600080fd5b505afa1580156104a1573d6000803e3d6000fd5b505050506040513d60208110156104b757600080fd5b50518590610d6f565b90610dcf565b92915050565b60038054604080516020601f60026000196101006001881615020190951694909404938401819004810282018101909252828152606093909290918301828280156105585780601f1061052d57610100808354040283529160200191610558565b820191906000526020600020905b81548152906001019060200180831161053b57829003601f168201915b5050505050905090565b600061056f338484610e11565b50600192915050565b60025490565b604080516323b872dd60e01b81523360048201523060248201526044810183905290516000916001600160a01b037f000000000000000000000000000000000000000000000000000000000000000016916323b872dd9160648082019260209290919082900301818787803b1580156105f657600080fd5b505af115801561060a573d6000803e3d6000fd5b505050506040513d602081101561062057600080fd5b50506040805163095ea7b360e01b81526001600160a01b037f0000000000000000000000000000000000000000000000000000000000000000811660048301526024820185905291517f00000000000000000000000000000000000000000000000000000000000000009092169163095ea7b3916044808201926020929091908290030181600087803b1580156106b657600080fd5b505af11580156106ca573d6000803e3d6000fd5b505050506040513d60208110156106e057600080fd5b505060408051637acb775760e01b81526004810184905230602482015290516001600160a01b037f00000000000000000000000000000000000000000000000000000000000000001691637acb77579160448083019260209291908290030181600087803b15801561075157600080fd5b505af1158015610765573d6000803e3d6000fd5b505050506040513d602081101561077b57600080fd5b5060009050610789836107fe565b90506104c63382610efd565b60006107a2848484610fed565b6107f484336107ef85604051806060016040528060288152602001611490602891396001600160a01b038a1660009081526001602090815260408083203384529091529020549190611148565b610e11565b5060019392505050565b60006104c67f00000000000000000000000000000000000000000000000000000000000000006001600160a01b0316632986c0e56040518163ffffffff1660e01b815260040160206040518083038186803b15801561085c57600080fd5b505afa158015610870573d6000803e3d6000fd5b505050506040513d602081101561088657600080fd5b50516104c06108936108a0565b859060ff16600a0a610d6f565b60055460ff1690565b3360008181526001602090815260408083206001600160a01b0387168452909152812054909161056f9185906107ef90866111df565b7f000000000000000000000000000000000000000000000000000000000000000081565b6001600160a01b031660009081526020819052604090205490565b60048054604080516020601f60026000196101006001881615020190951694909404938401819004810282018101909252828152606093909290918301828280156105585780601f1061052d57610100808354040283529160200191610558565b604080516323b872dd60e01b81523360048201523060248201526044810183905290516000916001600160a01b037f000000000000000000000000000000000000000000000000000000000000000016916323b872dd9160648082019260209290919082900301818787803b15801561075157600080fd5b600061056f33846107ef85604051806060016040528060258152602001611522602591393360009081526001602090815260408083206001600160a01b038d1684529091529020549190611148565b600061056f338484610fed565b7f000000000000000000000000000000000000000000000000000000000000000081565b6000610a833383611239565b6000610a8e8361041e565b90507f00000000000000000000000000000000000000000000000000000000000000006001600160a01b031663095ea7b37f0000000000000000000000000000000000000000000000000000000000000000836040518363ffffffff1660e01b815260040180836001600160a01b0316815260200182815260200192505050602060405180830381600087803b158015610b2757600080fd5b505af1158015610b3b573d6000803e3d6000fd5b505050506040513d6020811015610b5157600080fd5b5050604080516341c0f0c160e11b81526004810183905230602482015290516001600160a01b037f00000000000000000000000000000000000000000000000000000000000000001691638381e1829160448083019260209291908290030181600087803b158015610bc257600080fd5b505af1158015610bd6573d6000803e3d6000fd5b505050506040513d6020811015610bec57600080fd5b50506040805163a9059cbb60e01b81523360048201526024810183905290516001600160a01b037f0000000000000000000000000000000000000000000000000000000000000000169163a9059cbb9160448083019260209291908290030181600087803b158015610c5d57600080fd5b505af1158015610c71573d6000803e3d6000fd5b505050506040513d6020811015610c8757600080fd5b50909392505050565b7f000000000000000000000000000000000000000000000000000000000000000081565b6001600160a01b03918216600090815260016020908152604080832093909416825291909152205490565b6000610ceb3383611239565b6000610cf68361041e565b90507f00000000000000000000000000000000000000000000000000000000000000006001600160a01b031663a9059cbb33836040518363ffffffff1660e01b815260040180836001600160a01b0316815260200182815260200192505050602060405180830381600087803b158015610c5d57600080fd5b600082610d7e575060006104c6565b82820282848281610d8b57fe5b0414610dc85760405162461bcd60e51b815260040180806020018281038252602181526020018061146f6021913960400191505060405180910390fd5b9392505050565b6000610dc883836040518060400160405280601a81526020017f536166654d6174683a206469766973696f6e206279207a65726f000000000000815250611335565b6001600160a01b038316610e565760405162461bcd60e51b81526004018080602001828103825260248152602001806114fe6024913960400191505060405180910390fd5b6001600160a01b038216610e9b5760405162461bcd60e51b81526004018080602001828103825260228152602001806114276022913960400191505060405180910390fd5b6001600160a01b03808416600081815260016020908152604080832094871680845294825291829020859055815185815291517f8c5be1e5ebec7d5bd14f71427d1e84f3dd0314c0f7b2291e5b200ac8c7c3b9259281900390910190a3505050565b6001600160a01b038216610f58576040805162461bcd60e51b815260206004820152601f60248201527f45524332303a206d696e7420746f20746865207a65726f206164647265737300604482015290519081900360640190fd5b610f646000838361139a565b600254610f7190826111df565b6002556001600160a01b038216600090815260208190526040902054610f9790826111df565b6001600160a01b0383166000818152602081815260408083209490945583518581529351929391927fddf252ad1be2c89b69c2b068fc378daa952ba7f163c4a11628f55a4df523b3ef9281900390910190a35050565b6001600160a01b0383166110325760405162461bcd60e51b81526004018080602001828103825260258152602001806114d96025913960400191505060405180910390fd5b6001600160a01b0382166110775760405162461bcd60e51b81526004018080602001828103825260238152602001806113e26023913960400191505060405180910390fd5b61108283838361139a565b6110bf81604051806060016040528060268152602001611449602691396001600160a01b0386166000908152602081905260409020549190611148565b6001600160a01b0380851660009081526020819052604080822093909355908416815220546110ee90826111df565b6001600160a01b038084166000818152602081815260409182902094909455805185815290519193928716927fddf252ad1be2c89b69c2b068fc378daa952ba7f163c4a11628f55a4df523b3ef92918290030190a3505050565b600081848411156111d75760405162461bcd60e51b81526004018080602001828103825283818151815260200191508051906020019080838360005b8381101561119c578181015183820152602001611184565b50505050905090810190601f1680156111c95780820380516001836020036101000a031916815260200191505b509250505060405180910390fd5b505050900390565b600082820183811015610dc8576040805162461bcd60e51b815260206004820152601b60248201527f536166654d6174683a206164646974696f6e206f766572666c6f770000000000604482015290519081900360640190fd5b6001600160a01b03821661127e5760405162461bcd60e51b81526004018080602001828103825260218152602001806114b86021913960400191505060405180910390fd5b61128a8260008361139a565b6112c781604051806060016040528060228152602001611405602291396001600160a01b0385166000908152602081905260409020549190611148565b6001600160a01b0383166000908152602081905260409020556002546112ed908261139f565b6002556040805182815290516000916001600160a01b038516917fddf252ad1be2c89b69c2b068fc378daa952ba7f163c4a11628f55a4df523b3ef9181900360200190a35050565b600081836113845760405162461bcd60e51b815260206004820181815283516024840152835190928392604490910191908501908083836000831561119c578181015183820152602001611184565b50600083858161139057fe5b0495945050505050565b505050565b6000610dc883836040518060400160405280601e81526020017f536166654d6174683a207375627472616374696f6e206f766572666c6f77000081525061114856fe45524332303a207472616e7366657220746f20746865207a65726f206164647265737345524332303a206275726e20616d6f756e7420657863656564732062616c616e636545524332303a20617070726f766520746f20746865207a65726f206164647265737345524332303a207472616e7366657220616d6f756e7420657863656564732062616c616e6365536166654d6174683a206d756c7469706c69636174696f6e206f766572666c6f7745524332303a207472616e7366657220616d6f756e74206578636565647320616c6c6f77616e636545524332303a206275726e2066726f6d20746865207a65726f206164647265737345524332303a207472616e736665722066726f6d20746865207a65726f206164647265737345524332303a20617070726f76652066726f6d20746865207a65726f206164647265737345524332303a2064656372656173656420616c6c6f77616e63652062656c6f77207a65726fa26469706673582212208f0e96d43e4690337adebeac5877c3225c83980b6a751e8b0b4251f7925e18c364736f6c63430007050033",
  "linkReferences": {},
  "deployedLinkReferences": {}
}