{
  "_format": "hh-sol-artifact-1",
  "contractName": "OlympusBondDepository",
  "sourceName": "contracts/BondDepository.sol",
  "abi": [
    {
      "inputs": [
        {
          "internalType": "address",
          "name": "_OHM",
          "type": "address"
        },
        {
          "internalType": "address",
          "name": "_principle",
          "type": "address"
        },
        {
          "internalType": "address",
          "name": "_treasury",
          "type": "address"
        },
        {
          "internalType": "address",
          "name": "_DAO",
          "type": "address"
        },
        {
          "internalType": "address",
          "name": "_bondCalculator",
          "type": "address"
        }
      ],
      "stateMutability": "nonpayable",
      "type": "constructor"
    },
    {
      "anonymous": false,
      "inputs": [
        {
          "indexed": false,
          "internalType": "uint256",
          "name": "deposit",
          "type": "uint256"
        },
        {
          "indexed": true,
          "internalType": "uint256",
          "name": "payout",
          "type": "uint256"
        },
        {
          "indexed": true,
          "internalType": "uint256",
          "name": "expires",
          "type": "uint256"
        },
        {
          "indexed": true,
          "internalType": "uint256",
          "name": "priceInUSD",
          "type": "uint256"
        }
      ],
      "name": "BondCreated",
      "type": "event"
    },
    {
      "anonymous": false,
      "inputs": [
        {
          "indexed": true,
          "internalType": "uint256",
          "name": "priceInUSD",
          "type": "uint256"
        },
        {
          "indexed": true,
          "internalType": "uint256",
          "name": "internalPrice",
          "type": "uint256"
        },
        {
          "indexed": true,
          "internalType": "uint256",
          "name": "debtRatio",
          "type": "uint256"
        }
      ],
      "name": "BondPriceChanged",
      "type": "event"
    },
    {
      "anonymous": false,
      "inputs": [
        {
          "indexed": true,
          "internalType": "address",
          "name": "recipient",
          "type": "address"
        },
        {
          "indexed": false,
          "internalType": "uint256",
          "name": "payout",
          "type": "uint256"
        },
        {
          "indexed": false,
          "internalType": "uint256",
          "name": "remaining",
          "type": "uint256"
        }
      ],
      "name": "BondRedeemed",
      "type": "event"
    },
    {
      "anonymous": false,
      "inputs": [
        {
          "indexed": false,
          "internalType": "uint256",
          "name": "initialBCV",
          "type": "uint256"
        },
        {
          "indexed": false,
          "internalType": "uint256",
          "name": "newBCV",
          "type": "uint256"
        },
        {
          "indexed": false,
          "internalType": "uint256",
          "name": "adjustment",
          "type": "uint256"
        },
        {
          "indexed": false,
          "internalType": "bool",
          "name": "addition",
          "type": "bool"
        }
      ],
      "name": "ControlVariableAdjustment",
      "type": "event"
    },
    {
      "anonymous": false,
      "inputs": [
        {
          "indexed": true,
          "internalType": "address",
          "name": "previousOwner",
          "type": "address"
        },
        {
          "indexed": true,
          "internalType": "address",
          "name": "newOwner",
          "type": "address"
        }
      ],
      "name": "OwnershipPulled",
      "type": "event"
    },
    {
      "anonymous": false,
      "inputs": [
        {
          "indexed": true,
          "internalType": "address",
          "name": "previousOwner",
          "type": "address"
        },
        {
          "indexed": true,
          "internalType": "address",
          "name": "newOwner",
          "type": "address"
        }
      ],
      "name": "OwnershipPushed",
      "type": "event"
    },
    {
      "inputs": [],
      "name": "DAO",
      "outputs": [
        {
          "internalType": "address",
          "name": "",
          "type": "address"
        }
      ],
      "stateMutability": "view",
      "type": "function"
    },
    {
      "inputs": [],
      "name": "OHM",
      "outputs": [
        {
          "internalType": "address",
          "name": "",
          "type": "address"
        }
      ],
      "stateMutability": "view",
      "type": "function"
    },
    {
      "inputs": [],
      "name": "adjustment",
      "outputs": [
        {
          "internalType": "bool",
          "name": "add",
          "type": "bool"
        },
        {
          "internalType": "uint256",
          "name": "rate",
          "type": "uint256"
        },
        {
          "internalType": "uint256",
          "name": "target",
          "type": "uint256"
        },
        {
          "internalType": "uint256",
          "name": "buffer",
          "type": "uint256"
        },
        {
          "internalType": "uint256",
          "name": "lastBlock",
          "type": "uint256"
        }
      ],
      "stateMutability": "view",
      "type": "function"
    },
    {
      "inputs": [],
      "name": "bondCalculator",
      "outputs": [
        {
          "internalType": "address",
          "name": "",
          "type": "address"
        }
      ],
      "stateMutability": "view",
      "type": "function"
    },
    {
      "inputs": [
        {
          "internalType": "address",
          "name": "",
          "type": "address"
        }
      ],
      "name": "bondInfo",
      "outputs": [
        {
          "internalType": "uint256",
          "name": "payout",
          "type": "uint256"
        },
        {
          "internalType": "uint256",
          "name": "vesting",
          "type": "uint256"
        },
        {
          "internalType": "uint256",
          "name": "lastBlock",
          "type": "uint256"
        },
        {
          "internalType": "uint256",
          "name": "pricePaid",
          "type": "uint256"
        }
      ],
      "stateMutability": "view",
      "type": "function"
    },
    {
      "inputs": [],
      "name": "bondPrice",
      "outputs": [
        {
          "internalType": "uint256",
          "name": "price_",
          "type": "uint256"
        }
      ],
      "stateMutability": "view",
      "type": "function"
    },
    {
      "inputs": [],
      "name": "bondPriceInUSD",
      "outputs": [
        {
          "internalType": "uint256",
          "name": "price_",
          "type": "uint256"
        }
      ],
      "stateMutability": "view",
      "type": "function"
    },
    {
      "inputs": [],
      "name": "currentDebt",
      "outputs": [
        {
          "internalType": "uint256",
          "name": "",
          "type": "uint256"
        }
      ],
      "stateMutability": "view",
      "type": "function"
    },
    {
      "inputs": [],
      "name": "debtDecay",
      "outputs": [
        {
          "internalType": "uint256",
          "name": "decay_",
          "type": "uint256"
        }
      ],
      "stateMutability": "view",
      "type": "function"
    },
    {
      "inputs": [],
      "name": "debtRatio",
      "outputs": [
        {
          "internalType": "uint256",
          "name": "debtRatio_",
          "type": "uint256"
        }
      ],
      "stateMutability": "view",
      "type": "function"
    },
    {
      "inputs": [
        {
          "internalType": "uint256",
          "name": "_amount",
          "type": "uint256"
        },
        {
          "internalType": "uint256",
          "name": "_maxPrice",
          "type": "uint256"
        },
        {
          "internalType": "address",
          "name": "_depositor",
          "type": "address"
        }
      ],
      "name": "deposit",
      "outputs": [
        {
          "internalType": "uint256",
          "name": "",
          "type": "uint256"
        }
      ],
      "stateMutability": "nonpayable",
      "type": "function"
    },
    {
      "inputs": [
        {
          "internalType": "uint256",
          "name": "_controlVariable",
          "type": "uint256"
        },
        {
          "internalType": "uint256",
          "name": "_vestingTerm",
          "type": "uint256"
        },
        {
          "internalType": "uint256",
          "name": "_minimumPrice",
          "type": "uint256"
        },
        {
          "internalType": "uint256",
          "name": "_maxPayout",
          "type": "uint256"
        },
        {
          "internalType": "uint256",
          "name": "_fee",
          "type": "uint256"
        },
        {
          "internalType": "uint256",
          "name": "_maxDebt",
          "type": "uint256"
        },
        {
          "internalType": "uint256",
          "name": "_initialDebt",
          "type": "uint256"
        }
      ],
      "name": "initializeBondTerms",
      "outputs": [],
      "stateMutability": "nonpayable",
      "type": "function"
    },
    {
      "inputs": [],
      "name": "isLiquidityBond",
      "outputs": [
        {
          "internalType": "bool",
          "name": "",
          "type": "bool"
        }
      ],
      "stateMutability": "view",
      "type": "function"
    },
    {
      "inputs": [],
      "name": "lastDecay",
      "outputs": [
        {
          "internalType": "uint256",
          "name": "",
          "type": "uint256"
        }
      ],
      "stateMutability": "view",
      "type": "function"
    },
    {
      "inputs": [],
      "name": "maxPayout",
      "outputs": [
        {
          "internalType": "uint256",
          "name": "",
          "type": "uint256"
        }
      ],
      "stateMutability": "view",
      "type": "function"
    },
    {
      "inputs": [
        {
          "internalType": "uint256",
          "name": "_value",
          "type": "uint256"
        }
      ],
      "name": "payoutFor",
      "outputs": [
        {
          "internalType": "uint256",
          "name": "",
          "type": "uint256"
        }
      ],
      "stateMutability": "view",
      "type": "function"
    },
    {
      "inputs": [
        {
          "internalType": "address",
          "name": "_depositor",
          "type": "address"
        }
      ],
      "name": "pendingPayoutFor",
      "outputs": [
        {
          "internalType": "uint256",
          "name": "pendingPayout_",
          "type": "uint256"
        }
      ],
      "stateMutability": "view",
      "type": "function"
    },
    {
      "inputs": [
        {
          "internalType": "address",
          "name": "_depositor",
          "type": "address"
        }
      ],
      "name": "percentVestedFor",
      "outputs": [
        {
          "internalType": "uint256",
          "name": "percentVested_",
          "type": "uint256"
        }
      ],
      "stateMutability": "view",
      "type": "function"
    },
    {
      "inputs": [],
      "name": "policy",
      "outputs": [
        {
          "internalType": "address",
          "name": "",
          "type": "address"
        }
      ],
      "stateMutability": "view",
      "type": "function"
    },
    {
      "inputs": [],
      "name": "principle",
      "outputs": [
        {
          "internalType": "address",
          "name": "",
          "type": "address"
        }
      ],
      "stateMutability": "view",
      "type": "function"
    },
    {
      "inputs": [],
      "name": "pullManagement",
      "outputs": [],
      "stateMutability": "nonpayable",
      "type": "function"
    },
    {
      "inputs": [
        {
          "internalType": "address",
          "name": "newOwner_",
          "type": "address"
        }
      ],
      "name": "pushManagement",
      "outputs": [],
      "stateMutability": "nonpayable",
      "type": "function"
    },
    {
      "inputs": [
        {
          "internalType": "address",
          "name": "_token",
          "type": "address"
        }
      ],
      "name": "recoverLostToken",
      "outputs": [
        {
          "internalType": "bool",
          "name": "",
          "type": "bool"
        }
      ],
      "stateMutability": "nonpayable",
      "type": "function"
    },
    {
      "inputs": [
        {
          "internalType": "address",
          "name": "_recipient",
          "type": "address"
        },
        {
          "internalType": "bool",
          "name": "_stake",
          "type": "bool"
        }
      ],
      "name": "redeem",
      "outputs": [
        {
          "internalType": "uint256",
          "name": "",
          "type": "uint256"
        }
      ],
      "stateMutability": "nonpayable",
      "type": "function"
    },
    {
      "inputs": [],
      "name": "renounceManagement",
      "outputs": [],
      "stateMutability": "nonpayable",
      "type": "function"
    },
    {
      "inputs": [
        {
          "internalType": "bool",
          "name": "_addition",
          "type": "bool"
        },
        {
          "internalType": "uint256",
          "name": "_increment",
          "type": "uint256"
        },
        {
          "internalType": "uint256",
          "name": "_target",
          "type": "uint256"
        },
        {
          "internalType": "uint256",
          "name": "_buffer",
          "type": "uint256"
        }
      ],
      "name": "setAdjustment",
      "outputs": [],
      "stateMutability": "nonpayable",
      "type": "function"
    },
    {
      "inputs": [
        {
          "internalType": "enum OlympusBondDepository.PARAMETER",
          "name": "_parameter",
          "type": "uint8"
        },
        {
          "internalType": "uint256",
          "name": "_input",
          "type": "uint256"
        }
      ],
      "name": "setBondTerms",
      "outputs": [],
      "stateMutability": "nonpayable",
      "type": "function"
    },
    {
      "inputs": [
        {
          "internalType": "address",
          "name": "_DAO",
          "type": "address"
        }
      ],
      "name": "setDaoAddress",
      "outputs": [],
      "stateMutability": "nonpayable",
      "type": "function"
    },
    {
      "inputs": [
        {
          "internalType": "address",
          "name": "_staking",
          "type": "address"
        },
        {
          "internalType": "bool",
          "name": "_helper",
          "type": "bool"
        }
      ],
      "name": "setStaking",
      "outputs": [],
      "stateMutability": "nonpayable",
      "type": "function"
    },
    {
      "inputs": [],
      "name": "staking",
      "outputs": [
        {
          "internalType": "address",
          "name": "",
          "type": "address"
        }
      ],
      "stateMutability": "view",
      "type": "function"
    },
    {
      "inputs": [],
      "name": "stakingHelper",
      "outputs": [
        {
          "internalType": "address",
          "name": "",
          "type": "address"
        }
      ],
      "stateMutability": "view",
      "type": "function"
    },
    {
      "inputs": [],
      "name": "standardizedDebtRatio",
      "outputs": [
        {
          "internalType": "uint256",
          "name": "",
          "type": "uint256"
        }
      ],
      "stateMutability": "view",
      "type": "function"
    },
    {
      "inputs": [],
      "name": "terms",
      "outputs": [
        {
          "internalType": "uint256",
          "name": "controlVariable",
          "type": "uint256"
        },
        {
          "internalType": "uint256",
          "name": "vestingTerm",
          "type": "uint256"
        },
        {
          "internalType": "uint256",
          "name": "minimumPrice",
          "type": "uint256"
        },
        {
          "internalType": "uint256",
          "name": "maxPayout",
          "type": "uint256"
        },
        {
          "internalType": "uint256",
          "name": "fee",
          "type": "uint256"
        },
        {
          "internalType": "uint256",
          "name": "maxDebt",
          "type": "uint256"
        }
      ],
      "stateMutability": "view",
      "type": "function"
    },
    {
      "inputs": [],
      "name": "totalDebt",
      "outputs": [
        {
          "internalType": "uint256",
          "name": "",
          "type": "uint256"
        }
      ],
      "stateMutability": "view",
      "type": "function"
    },
    {
      "inputs": [],
      "name": "treasury",
      "outputs": [
        {
          "internalType": "address",
          "name": "",
          "type": "address"
        }
      ],
      "stateMutability": "view",
      "type": "function"
    },
    {
      "inputs": [],
      "name": "useHelper",
      "outputs": [
        {
          "internalType": "bool",
          "name": "",
          "type": "bool"
        }
      ],
      "stateMutability": "view",
      "type": "function"
    }
  ],
  "bytecode": "0x6101206040523480156200001257600080fd5b5060405162002c8738038062002c87833981810160405260a08110156200003857600080fd5b50805160208201516040808401516060850151608090950151600080546001600160a01b031916331780825593519596949592949391926001600160a01b0392909216917fea8258f2d9ddb679928cf34b78cf645b7feda9acc828e4dd82d014eaae270eba908290a36001600160a01b038516620000b557600080fd5b6001600160601b0319606086901b166080526001600160a01b038416620000db57600080fd5b6001600160601b0319606085901b1660a0526001600160a01b0383166200010157600080fd5b6001600160601b0319606084901b1660c0526001600160a01b0382166200012757600080fd5b600280546001600160a01b039384166001600160a01b03199091161790556001600160601b0319606082901b166101005216151560f81b60e05250505060805160601c60a05160601c60c05160601c60e05160f81c6101005160601c612a756200021260003980610f89528061161552806118ab525080610f5b52806115e45280611a86525080610df152806111f2528061141f5250806105cc5280610fb8528061105f528061122152806113c652806113f0528061164452806117d452508061176f528061179552806118f95280611afb5280611c805280611d675280611e795250612a756000f3fe608060405234801561001057600080fd5b506004361061021c5760003560e01c8063844b5c7c11610125578063cea55f57116100ad578063d7ccfb0b1161007c578063d7ccfb0b146105a2578063e0176de8146105aa578063e392a262146105b2578063f5c2ab5b146105ba578063fc7b9c18146105c25761021c565b8063cea55f5714610529578063d4d863ce14610531578063d50256251461055f578063d79690601461059a5761021c565b80639a3cac6a116100f45780639a3cac6a14610481578063a6c41fec146104a7578063b4abccba146104af578063c5332b7c146104d5578063cd1234b3146104dd5761021c565b8063844b5c7c146104375780638dbdbe6d1461043f578063904b3ece1461047157806398fabd3a146104795761021c565b806346f68ee9116101a857806361d027b31161017757806361d027b3146103c157806371535008146103c9578063759076e51461040a57806377b81895146104125780637927ebf81461041a5761021c565b806346f68ee9146103655780634cf088d91461038b578063507930ec146103935780635a96ac0a146103b95761021c565b80631a3d0068116101ef5780631a3d00681461028f5780631e321a0f146102c05780631feed31f146102e65780632f3f470a14610314578063451ee4a1146103305761021c565b8063016a42841461022157806301b88ee8146102455780630505c8c91461027d578063089208d814610285575b600080fd5b6102296105ca565b604080516001600160a01b039092168252519081900360200190f35b61026b6004803603602081101561025b57600080fd5b50356001600160a01b03166105ee565b60408051918252519081900360200190f35b610229610647565b61028d610657565b005b61028d600480360360808110156102a557600080fd5b508035151590602081013590604081013590606001356106ee565b61028d600480360360408110156102d657600080fd5b5060ff81351690602001356107e6565b61026b600480360360408110156102fc57600080fd5b506001600160a01b038135169060200135151561099a565b61031c610b8f565b604080519115158252519081900360200190f35b610338610b9f565b60408051951515865260208601949094528484019290925260608401526080830152519081900360a00190f35b61028d6004803603602081101561037b57600080fd5b50356001600160a01b0316610bb7565b610229610ca4565b61026b600480360360208110156103a957600080fd5b50356001600160a01b0316610cb3565b61028d610d45565b610229610def565b61028d600480360360e08110156103df57600080fd5b5080359060208101359060408101359060608101359060808101359060a08101359060c00135610e13565b61026b610f07565b610229610f22565b61026b6004803603602081101561043057600080fd5b5035610f31565b61026b610f57565b61026b6004803603606081101561045557600080fd5b50803590602081013590604001356001600160a01b03166110f0565b61026b6115e0565b6102296116dc565b61028d6004803603602081101561049757600080fd5b50356001600160a01b03166116eb565b61022961176d565b61031c600480360360208110156104c557600080fd5b50356001600160a01b0316611791565b6102296118a9565b610503600480360360208110156104f357600080fd5b50356001600160a01b03166118cd565b604080519485526020850193909352838301919091526060830152519081900360800190f35b61026b6118f4565b61028d6004803603604081101561054757600080fd5b506001600160a01b03813516906020013515156119ac565b610567611a6f565b604080519687526020870195909552858501939093526060850191909152608084015260a0830152519081900360c00190f35b61031c611a84565b61026b611aa8565b61026b611ae7565b61026b611b84565b61026b611bc9565b61026b611bcf565b7f000000000000000000000000000000000000000000000000000000000000000081565b6000806105fa83610cb3565b6001600160a01b038416600090815260106020526040902054909150612710821061062757809250610640565b61063d6127106106378385611bd5565b90611c35565b92505b5050919050565b6000546001600160a01b03165b90565b6000546001600160a01b031633146106a4576040805162461bcd60e51b815260206004820181905260248201526000805160206129af833981519152604482015290519081900360640190fd5b600080546040516001600160a01b03909116907fea8258f2d9ddb679928cf34b78cf645b7feda9acc828e4dd82d014eaae270eba908390a3600080546001600160a01b0319169055565b6000546001600160a01b0316331461073b576040805162461bcd60e51b815260206004820181905260248201526000805160206129af833981519152604482015290519081900360640190fd5b600554610751906103e890610637906019611bd5565b83111561079b576040805162461bcd60e51b8152602060048201526013602482015272496e6372656d656e7420746f6f206c6172676560681b604482015290519081900360640190fd5b6040805160a0810182529415158086526020860185905290850183905260608501829052436080909501859052600b805460ff19169091179055600c92909255600d55600e55600f55565b6000546001600160a01b03163314610833576040805162461bcd60e51b815260206004820181905260248201526000805160206129af833981519152604482015290519081900360640190fd5b600082600381111561084157fe5b1415610892576127108110156108885760405162461bcd60e51b81526004018080602001828103825260248152602001806129f26024913960400191505060405180910390fd5b6006819055610996565b60018260038111156108a057fe5b1415610907576103e88111156108fd576040805162461bcd60e51b815260206004820181905260248201527f5061796f75742063616e6e6f742062652061626f766520312070657263656e74604482015290519081900360640190fd5b6008819055610996565b600282600381111561091557fe5b141561097c57612710811115610972576040805162461bcd60e51b815260206004820152601c60248201527f44414f206665652063616e6e6f7420657863656564207061796f757400000000604482015290519081900360640190fd5b6009819055610996565b600382600381111561098a57fe5b141561099657600a8190555b5050565b60006109a46128e5565b506001600160a01b0383166000908152601060209081526040808320815160808101835281548152600182015493810193909352600281015491830191909152600301546060820152906109f785610cb3565b90506127108110610a87576001600160a01b03851660008181526010602090815260408083208381556001810184905560028101849055600301839055855181519081529182019290925281517f51c99f515c87b0d95ba97f616edd182e8f161c4932eac17c6fefe9dab58b77b1929181900390910190a2610a7e85858460000151611c77565b92505050610b89565b8151600090610a9e90612710906106379085611bd5565b90506040518060800160405280610ac2838660000151611f7a90919063ffffffff16565b8152602001610aec610ae1866040015143611f7a90919063ffffffff16565b602087015190611f7a565b8152436020808301919091526060808701516040938401526001600160a01b038a166000818152601084528490208551808255868501516001830155868601516002830155959092015160039092019190915582518581529182019390935281517f51c99f515c87b0d95ba97f616edd182e8f161c4932eac17c6fefe9dab58b77b1929181900390910190a2610b83868683611c77565b93505050505b92915050565b600454600160a01b900460ff1681565b600b54600c54600d54600e54600f5460ff9094169385565b6000546001600160a01b03163314610c04576040805162461bcd60e51b815260206004820181905260248201526000805160206129af833981519152604482015290519081900360640190fd5b6001600160a01b038116610c495760405162461bcd60e51b81526004018080602001828103825260268152602001806129206026913960400191505060405180910390fd5b600080546040516001600160a01b03808516939216917fea8258f2d9ddb679928cf34b78cf645b7feda9acc828e4dd82d014eaae270eba91a3600180546001600160a01b0319166001600160a01b0392909216919091179055565b6003546001600160a01b031681565b6000610cbd6128e5565b506001600160a01b03821660009081526010602090815260408083208151608081018352815481526001820154938101939093526002810154918301829052600301546060830152909190610d13904390611f7a565b60208301519091508015610d3857610d318161063784612710611bd5565b9350610d3d565b600093505b505050919050565b6001546001600160a01b03163314610d8e5760405162461bcd60e51b81526004018080602001828103825260228152602001806129466022913960400191505060405180910390fd5b600154600080546040516001600160a01b0393841693909116917faa151555690c956fc3ea32f106bb9f119b5237a061eaa8557cff3e51e3792c8d91a3600154600080546001600160a01b0319166001600160a01b03909216919091179055565b7f000000000000000000000000000000000000000000000000000000000000000081565b6000546001600160a01b03163314610e60576040805162461bcd60e51b815260206004820181905260248201526000805160206129af833981519152604482015290519081900360640190fd5b60055415610eb5576040805162461bcd60e51b815260206004820181905260248201527f426f6e6473206d75737420626520696e697469616c697a65642066726f6d2030604482015290519081900360640190fd5b6040805160c08101825288815260208101889052908101869052606081018590526080810184905260a001829052600596909655600694909455600792909255600855600955600a5560115543601255565b6000610f1d610f14611b84565b60115490611f7a565b905090565b6004546001600160a01b031681565b6000610b89662386f26fc10000610637610f5285610f4d611aa8565b611fbc565b612133565b60007f0000000000000000000000000000000000000000000000000000000000000000156110555761104e60646106377f00000000000000000000000000000000000000000000000000000000000000006001600160a01b03166332da80a37f00000000000000000000000000000000000000000000000000000000000000006040518263ffffffff1660e01b815260040180826001600160a01b0316815260200191505060206040518083038186803b15801561101457600080fd5b505afa158015611028573d6000803e3d6000fd5b505050506040513d602081101561103e57600080fd5b5051611048611aa8565b90611bd5565b9050610654565b610f1d60646106377f00000000000000000000000000000000000000000000000000000000000000006001600160a01b031663313ce5676040518163ffffffff1660e01b815260040160206040518083038186803b1580156110b657600080fd5b505afa1580156110ca573d6000803e3d6000fd5b505050506040513d60208110156110e057600080fd5b505160ff16600a0a611048611aa8565b60006001600160a01b03821661113f576040805162461bcd60e51b815260206004820152600f60248201526e496e76616c6964206164647265737360881b604482015290519081900360640190fd5b61114761214b565b600a546011541115611197576040805162461bcd60e51b815260206004820152601460248201527313585e0818d85c1858da5d1e481c995858da195960621b604482015290519081900360640190fd5b60006111a1610f57565b905060006111ad61215f565b9050808510156111ee5760405162461bcd60e51b81526004018080602001828103825260238152602001806129cf6023913960400191505060405180910390fd5b60007f00000000000000000000000000000000000000000000000000000000000000006001600160a01b0316631eec5a9a7f0000000000000000000000000000000000000000000000000000000000000000896040518363ffffffff1660e01b815260040180836001600160a01b031681526020018281526020019250505060206040518083038186803b15801561128557600080fd5b505afa158015611299573d6000803e3d6000fd5b505050506040513d60208110156112af57600080fd5b5051905060006112be82610f31565b905062989680811015611309576040805162461bcd60e51b815260206004820152600e60248201526d109bdb99081d1bdbc81cdb585b1b60921b604482015290519081900360640190fd5b611311611ae7565b811115611356576040805162461bcd60e51b815260206004820152600e60248201526d426f6e6420746f6f206c6172676560901b604482015290519081900360640190fd5b600061137661271061063760056004015485611bd590919063ffffffff16565b90506113b96040518060400160405280601c81526020017f76616c7565202573207061796f757420746f20257320666565202573000000008152508484846121a1565b6113ee6001600160a01b037f00000000000000000000000000000000000000000000000000000000000000001633308c612265565b7f00000000000000000000000000000000000000000000000000000000000000006001600160a01b031663095ea7b37f00000000000000000000000000000000000000000000000000000000000000008b6040518363ffffffff1660e01b815260040180836001600160a01b0316815260200182815260200192505050602060405180830381600087803b15801561148557600080fd5b505af1158015611499573d6000803e3d6000fd5b505050506040513d60208110156114af57600080fd5b50506011546114be90846122bf565b601155604080516080810182526001600160a01b03891660009081526010602052919091205481906114f090856122bf565b81526006805460208084019190915243604080850182905260609485018b90526001600160a01b038d166000908152601084528190208651815592860151600184015585015160028301559390920151600390920191909155548691611555916122bf565b604080518c8152905185917f1fec6dc81f140574bf43f6b1e420ae1dd47928b9d57db8cbd7b8611063b85ae5919081900360200190a46115936118f4565b61159b61215f565b6115a3610f57565b6040517f375b221f40939bfd8f49723a17cf7bc6d576ebf72efe2cc3e991826f5b3f390a90600090a46115d4612319565b50979650505050505050565b60007f0000000000000000000000000000000000000000000000000000000000000000156116d45761104e633b9aca006106377f00000000000000000000000000000000000000000000000000000000000000006001600160a01b03166332da80a37f00000000000000000000000000000000000000000000000000000000000000006040518263ffffffff1660e01b815260040180826001600160a01b0316815260200191505060206040518083038186803b1580156116a057600080fd5b505afa1580156116b4573d6000803e3d6000fd5b505050506040513d60208110156116ca57600080fd5b50516110486118f4565b61104e6118f4565b6002546001600160a01b031681565b6000546001600160a01b03163314611738576040805162461bcd60e51b815260206004820181905260248201526000805160206129af833981519152604482015290519081900360640190fd5b6001600160a01b03811661174b57600080fd5b600280546001600160a01b0319166001600160a01b0392909216919091179055565b7f000000000000000000000000000000000000000000000000000000000000000081565b60007f00000000000000000000000000000000000000000000000000000000000000006001600160a01b0316826001600160a01b031614156117d257600080fd5b7f00000000000000000000000000000000000000000000000000000000000000006001600160a01b0316826001600160a01b0316141561181157600080fd5b600254604080516370a0823160e01b815230600482015290516118a1926001600160a01b0390811692908616916370a0823191602480820192602092909190829003018186803b15801561186457600080fd5b505afa158015611878573d6000803e3d6000fd5b505050506040513d602081101561188e57600080fd5b50516001600160a01b03851691906123f9565b506001919050565b7f000000000000000000000000000000000000000000000000000000000000000081565b60106020526000908152604090208054600182015460028301546003909301549192909184565b6000807f00000000000000000000000000000000000000000000000000000000000000006001600160a01b03166318160ddd6040518163ffffffff1660e01b815260040160206040518083038186803b15801561195057600080fd5b505afa158015611964573d6000803e3d6000fd5b505050506040513d602081101561197a57600080fd5b505190506119a6670de0b6b3a7640000610637610f526119a0633b9aca00611048610f07565b85611fbc565b91505090565b6000546001600160a01b031633146119f9576040805162461bcd60e51b815260206004820181905260248201526000805160206129af833981519152604482015290519081900360640190fd5b6001600160a01b038216611a0c57600080fd5b8015611a415760048054600160a01b60ff60a01b19909116176001600160a01b0319166001600160a01b038416179055610996565b6004805460ff60a01b19169055600380546001600160a01b0384166001600160a01b03199091161790555050565b600554600654600754600854600954600a5486565b7f000000000000000000000000000000000000000000000000000000000000000081565b6000611ad362989680610637633b9aca00611acd611ac46118f4565b60055490611bd5565b906122bf565b600754909150811015610654575060075490565b6000610f1d620186a06106376005600301547f00000000000000000000000000000000000000000000000000000000000000006001600160a01b03166318160ddd6040518163ffffffff1660e01b815260040160206040518083038186803b158015611b5257600080fd5b505afa158015611b66573d6000803e3d6000fd5b505050506040513d6020811015611b7c57600080fd5b505190611bd5565b600080611b9c60125443611f7a90919063ffffffff16565b600654601154919250611bb3916106379084611bd5565b9150601154821115611bc55760115491505b5090565b60125481565b60115481565b600082611be457506000610b89565b82820282848281611bf157fe5b0414611c2e5760405162461bcd60e51b815260040180806020018281038252602181526020018061298e6021913960400191505060405180910390fd5b9392505050565b6000611c2e83836040518060400160405280601a81526020017f536166654d6174683a206469766973696f6e206279207a65726f000000000000815250612450565b600082611d27577f00000000000000000000000000000000000000000000000000000000000000006001600160a01b031663a9059cbb85846040518363ffffffff1660e01b815260040180836001600160a01b0316815260200182815260200192505050602060405180830381600087803b158015611cf557600080fd5b505af1158015611d09573d6000803e3d6000fd5b505050506040513d6020811015611d1f57600080fd5b50611f739050565b600454600160a01b900460ff1615611e4d57600480546040805163095ea7b360e01b81526001600160a01b039283169381019390935260248301859052517f00000000000000000000000000000000000000000000000000000000000000009091169163095ea7b39160448083019260209291908290030181600087803b158015611db157600080fd5b505af1158015611dc5573d6000803e3d6000fd5b505050506040513d6020811015611ddb57600080fd5b50506004805460408051637acb775760e01b81529283018590526001600160a01b0387811660248501529051911691637acb775791604480830192600092919082900301818387803b158015611e3057600080fd5b505af1158015611e44573d6000803e3d6000fd5b50505050611f73565b6003546040805163095ea7b360e01b81526001600160a01b0392831660048201526024810185905290517f00000000000000000000000000000000000000000000000000000000000000009092169163095ea7b3916044808201926020929091908290030181600087803b158015611ec457600080fd5b505af1158015611ed8573d6000803e3d6000fd5b505050506040513d6020811015611eee57600080fd5b505060035460408051637acb775760e01b8152600481018590526001600160a01b03878116602483015291519190921691637acb77579160448083019260209291908290030181600087803b158015611f4657600080fd5b505af1158015611f5a573d6000803e3d6000fd5b505050506040513d6020811015611f7057600080fd5b50505b5092915050565b6000611c2e83836040518060400160405280601e81526020017f536166654d6174683a207375627472616374696f6e206f766572666c6f7700008152506124f2565b611fc461290d565b600082116120035760405162461bcd60e51b81526004018080602001828103825260268152602001806129686026913960400191505060405180910390fd5b8261201d5750604080516020810190915260008152610b89565b71ffffffffffffffffffffffffffffffffffff83116120c457600082607085901b8161204557fe5b0490506001600160e01b038111156120a4576040805162461bcd60e51b815260206004820152601e60248201527f4669786564506f696e743a3a6672616374696f6e3a206f766572666c6f770000604482015290519081900360640190fd5b6040518060200160405280826001600160e01b0316815250915050610b89565b60006120d584600160701b8561254c565b90506001600160e01b038111156120a4576040805162461bcd60e51b815260206004820152601e60248201527f4669786564506f696e743a3a6672616374696f6e3a206f766572666c6f770000604482015290519081900360640190fd5b516612725dd1d243ab6001600160e01b039091160490565b612156610f14611b84565b60115543601255565b600061217b62989680610637633b9aca00611acd611ac46118f4565b6007549091508110156121915750600754610654565b6007541561065457600060075590565b61225f848484846040516024018080602001858152602001848152602001838152602001828103825286818151815260200191508051906020019080838360005b838110156121fa5781810151838201526020016121e2565b50505050905090810190601f1680156122275780820380516001836020036101000a031916815260200191505b5060408051601f198184030181529190526020810180516001600160e01b03166304772b3360e11b17905295506125ec945050505050565b50505050565b604080516001600160a01b0380861660248301528416604482015260648082018490528251808303909101815260849091019091526020810180516001600160e01b03166323b872dd60e01b17905261225f90859061260d565b600082820183811015611c2e576040805162461bcd60e51b815260206004820152601b60248201527f536166654d6174683a206164646974696f6e206f766572666c6f770000000000604482015290519081900360640190fd5b600e54600f5460009161232c91906122bf565b600c54909150158015906123405750804310155b156123f657600554600b5460ff161561237a57600c54600554612362916122bf565b6005819055600d5411612375576000600c555b61239c565b600c5460055461238991611f7a565b6005819055600d541061239c576000600c555b43600f55600554600c54600b546040805185815260208101949094528381019290925260ff1615156060830152517fb923e581a0f83128e9e1d8297aa52b18d6744310476e0b54509c054cd7a93b2a9181900360800190a1505b50565b604080516001600160a01b038416602482015260448082018490528251808303909101815260649091019091526020810180516001600160e01b031663a9059cbb60e01b17905261244b90849061260d565b505050565b600081836124dc5760405162461bcd60e51b81526004018080602001828103825283818151815260200191508051906020019080838360005b838110156124a1578181015183820152602001612489565b50505050905090810190601f1680156124ce5780820380516001836020036101000a031916815260200191505b509250505060405180910390fd5b5060008385816124e857fe5b0495945050505050565b600081848411156125445760405162461bcd60e51b81526020600482018181528351602484015283519092839260449091019190850190808383600083156124a1578181015183820152602001612489565b505050900390565b600080600061255b86866126be565b915091506000848061256957fe5b86880990508281111561257d576001820391505b80830392508482106125d6576040805162461bcd60e51b815260206004820152601a60248201527f46756c6c4d6174683a3a6d756c4469763a206f766572666c6f77000000000000604482015290519081900360640190fd5b6125e18383876126eb565b979650505050505050565b80516a636f6e736f6c652e6c6f67602083016000808483855afa5050505050565b6060612662826040518060400160405280602081526020017f5361666545524332303a206c6f772d6c6576656c2063616c6c206661696c6564815250856001600160a01b031661275b9092919063ffffffff16565b80519091501561244b5780806020019051602081101561268157600080fd5b505161244b5760405162461bcd60e51b815260040180806020018281038252602a815260200180612a16602a913960400191505060405180910390fd5b60008080600019848609905083850292508281039150828110156126e3576001820391505b509250929050565b600081810382168083816126fb57fe5b04925080858161270757fe5b04945080816000038161271657fe5b60028581038087028203028087028203028087028203028087028203028087028203028087028203029586029003909402930460010193909302939093010292915050565b606061276a8484600085612772565b949350505050565b606061277d856128df565b6127ce576040805162461bcd60e51b815260206004820152601d60248201527f416464726573733a2063616c6c20746f206e6f6e2d636f6e7472616374000000604482015290519081900360640190fd5b60006060866001600160a01b031685876040518082805190602001908083835b6020831061280d5780518252601f1990920191602091820191016127ee565b6001836020036101000a03801982511681845116808217855250505050505090500191505060006040518083038185875af1925050503d806000811461286f576040519150601f19603f3d011682016040523d82523d6000602084013e612874565b606091505b5091509150811561288857915061276a9050565b8051156128985780518082602001fd5b60405162461bcd60e51b81526020600482018181528651602484015286518793919283926044019190850190808383600083156124a1578181015183820152602001612489565b3b151590565b6040518060800160405280600081526020016000815260200160008152602001600081525090565b6040805160208101909152600081529056fe4f776e61626c653a206e6577206f776e657220697320746865207a65726f20616464726573734f776e61626c653a206d757374206265206e6577206f776e657220746f2070756c6c4669786564506f696e743a3a6672616374696f6e3a206469766973696f6e206279207a65726f536166654d6174683a206d756c7469706c69636174696f6e206f766572666c6f774f776e61626c653a2063616c6c6572206973206e6f7420746865206f776e6572536c697070616765206c696d69743a206d6f7265207468616e206d617820707269636556657374696e67206d757374206265206c6f6e676572207468616e20333620686f7572735361666545524332303a204552433230206f7065726174696f6e20646964206e6f742073756363656564a2646970667358221220d35cc771b45aad3a12be5f70c8db854f212519b19a3df0bbef62e034119c3d1e64736f6c63430007050033",
  "linkReferences": {},
  "deployedLinkReferences": {}
}