{
  "_format": "hh-sol-artifact-1",
  "contractName": "OlympusBondDepository",
  "sourceName": "contracts/BondDepository.sol",
  "abi": [
    {
      "inputs": [
        {
          "internalType": "address",
          "name": "_PIP",
          "type": "address"
        },
        {
          "internalType": "address",
          "name": "_principle",
          "type": "address"
        },
        {
          "internalType": "address",
          "name": "_treasury",
          "type": "address"
        },
        {
          "internalType": "address",
          "name": "_DAO",
          "type": "address"
        },
        {
          "internalType": "address",
          "name": "_bondCalculator",
          "type": "address"
        }
      ],
      "stateMutability": "nonpayable",
      "type": "constructor"
    },
    {
      "anonymous": false,
      "inputs": [
        {
          "indexed": false,
          "internalType": "uint256",
          "name": "deposit",
          "type": "uint256"
        },
        {
          "indexed": true,
          "internalType": "uint256",
          "name": "payout",
          "type": "uint256"
        },
        {
          "indexed": true,
          "internalType": "uint256",
          "name": "expires",
          "type": "uint256"
        },
        {
          "indexed": true,
          "internalType": "uint256",
          "name": "priceInUSD",
          "type": "uint256"
        }
      ],
      "name": "BondCreated",
      "type": "event"
    },
    {
      "anonymous": false,
      "inputs": [
        {
          "indexed": true,
          "internalType": "uint256",
          "name": "priceInUSD",
          "type": "uint256"
        },
        {
          "indexed": true,
          "internalType": "uint256",
          "name": "internalPrice",
          "type": "uint256"
        },
        {
          "indexed": true,
          "internalType": "uint256",
          "name": "debtRatio",
          "type": "uint256"
        }
      ],
      "name": "BondPriceChanged",
      "type": "event"
    },
    {
      "anonymous": false,
      "inputs": [
        {
          "indexed": true,
          "internalType": "address",
          "name": "recipient",
          "type": "address"
        },
        {
          "indexed": false,
          "internalType": "uint256",
          "name": "payout",
          "type": "uint256"
        },
        {
          "indexed": false,
          "internalType": "uint256",
          "name": "remaining",
          "type": "uint256"
        }
      ],
      "name": "BondRedeemed",
      "type": "event"
    },
    {
      "anonymous": false,
      "inputs": [
        {
          "indexed": false,
          "internalType": "uint256",
          "name": "initialBCV",
          "type": "uint256"
        },
        {
          "indexed": false,
          "internalType": "uint256",
          "name": "newBCV",
          "type": "uint256"
        },
        {
          "indexed": false,
          "internalType": "uint256",
          "name": "adjustment",
          "type": "uint256"
        },
        {
          "indexed": false,
          "internalType": "bool",
          "name": "addition",
          "type": "bool"
        }
      ],
      "name": "ControlVariableAdjustment",
      "type": "event"
    },
    {
      "anonymous": false,
      "inputs": [
        {
          "indexed": true,
          "internalType": "address",
          "name": "previousOwner",
          "type": "address"
        },
        {
          "indexed": true,
          "internalType": "address",
          "name": "newOwner",
          "type": "address"
        }
      ],
      "name": "OwnershipPulled",
      "type": "event"
    },
    {
      "anonymous": false,
      "inputs": [
        {
          "indexed": true,
          "internalType": "address",
          "name": "previousOwner",
          "type": "address"
        },
        {
          "indexed": true,
          "internalType": "address",
          "name": "newOwner",
          "type": "address"
        }
      ],
      "name": "OwnershipPushed",
      "type": "event"
    },
    {
      "inputs": [],
      "name": "DAO",
      "outputs": [
        {
          "internalType": "address",
          "name": "",
          "type": "address"
        }
      ],
      "stateMutability": "view",
      "type": "function"
    },
    {
      "inputs": [],
      "name": "PIP",
      "outputs": [
        {
          "internalType": "address",
          "name": "",
          "type": "address"
        }
      ],
      "stateMutability": "view",
      "type": "function"
    },
    {
      "inputs": [],
      "name": "adjustment",
      "outputs": [
        {
          "internalType": "bool",
          "name": "add",
          "type": "bool"
        },
        {
          "internalType": "uint256",
          "name": "rate",
          "type": "uint256"
        },
        {
          "internalType": "uint256",
          "name": "target",
          "type": "uint256"
        },
        {
          "internalType": "uint256",
          "name": "buffer",
          "type": "uint256"
        },
        {
          "internalType": "uint256",
          "name": "lastBlock",
          "type": "uint256"
        }
      ],
      "stateMutability": "view",
      "type": "function"
    },
    {
      "inputs": [],
      "name": "bondCalculator",
      "outputs": [
        {
          "internalType": "address",
          "name": "",
          "type": "address"
        }
      ],
      "stateMutability": "view",
      "type": "function"
    },
    {
      "inputs": [
        {
          "internalType": "address",
          "name": "",
          "type": "address"
        }
      ],
      "name": "bondInfo",
      "outputs": [
        {
          "internalType": "uint256",
          "name": "payout",
          "type": "uint256"
        },
        {
          "internalType": "uint256",
          "name": "vesting",
          "type": "uint256"
        },
        {
          "internalType": "uint256",
          "name": "lastBlock",
          "type": "uint256"
        },
        {
          "internalType": "uint256",
          "name": "pricePaid",
          "type": "uint256"
        }
      ],
      "stateMutability": "view",
      "type": "function"
    },
    {
      "inputs": [],
      "name": "bondPrice",
      "outputs": [
        {
          "internalType": "uint256",
          "name": "price_",
          "type": "uint256"
        }
      ],
      "stateMutability": "view",
      "type": "function"
    },
    {
      "inputs": [],
      "name": "bondPriceInUSD",
      "outputs": [
        {
          "internalType": "uint256",
          "name": "price_",
          "type": "uint256"
        }
      ],
      "stateMutability": "view",
      "type": "function"
    },
    {
      "inputs": [],
      "name": "currentDebt",
      "outputs": [
        {
          "internalType": "uint256",
          "name": "",
          "type": "uint256"
        }
      ],
      "stateMutability": "view",
      "type": "function"
    },
    {
      "inputs": [],
      "name": "debtDecay",
      "outputs": [
        {
          "internalType": "uint256",
          "name": "decay_",
          "type": "uint256"
        }
      ],
      "stateMutability": "view",
      "type": "function"
    },
    {
      "inputs": [],
      "name": "debtRatio",
      "outputs": [
        {
          "internalType": "uint256",
          "name": "debtRatio_",
          "type": "uint256"
        }
      ],
      "stateMutability": "view",
      "type": "function"
    },
    {
      "inputs": [
        {
          "internalType": "uint256",
          "name": "_amount",
          "type": "uint256"
        },
        {
          "internalType": "uint256",
          "name": "_maxPrice",
          "type": "uint256"
        },
        {
          "internalType": "address",
          "name": "_depositor",
          "type": "address"
        }
      ],
      "name": "deposit",
      "outputs": [
        {
          "internalType": "uint256",
          "name": "",
          "type": "uint256"
        }
      ],
      "stateMutability": "nonpayable",
      "type": "function"
    },
    {
      "inputs": [
        {
          "internalType": "uint256",
          "name": "_controlVariable",
          "type": "uint256"
        },
        {
          "internalType": "uint256",
          "name": "_vestingTerm",
          "type": "uint256"
        },
        {
          "internalType": "uint256",
          "name": "_minimumPrice",
          "type": "uint256"
        },
        {
          "internalType": "uint256",
          "name": "_maxPayout",
          "type": "uint256"
        },
        {
          "internalType": "uint256",
          "name": "_fee",
          "type": "uint256"
        },
        {
          "internalType": "uint256",
          "name": "_maxDebt",
          "type": "uint256"
        },
        {
          "internalType": "uint256",
          "name": "_initialDebt",
          "type": "uint256"
        }
      ],
      "name": "initializeBondTerms",
      "outputs": [],
      "stateMutability": "nonpayable",
      "type": "function"
    },
    {
      "inputs": [],
      "name": "isLiquidityBond",
      "outputs": [
        {
          "internalType": "bool",
          "name": "",
          "type": "bool"
        }
      ],
      "stateMutability": "view",
      "type": "function"
    },
    {
      "inputs": [],
      "name": "lastDecay",
      "outputs": [
        {
          "internalType": "uint256",
          "name": "",
          "type": "uint256"
        }
      ],
      "stateMutability": "view",
      "type": "function"
    },
    {
      "inputs": [],
      "name": "maxPayout",
      "outputs": [
        {
          "internalType": "uint256",
          "name": "",
          "type": "uint256"
        }
      ],
      "stateMutability": "view",
      "type": "function"
    },
    {
      "inputs": [
        {
          "internalType": "uint256",
          "name": "_value",
          "type": "uint256"
        }
      ],
      "name": "payoutFor",
      "outputs": [
        {
          "internalType": "uint256",
          "name": "",
          "type": "uint256"
        }
      ],
      "stateMutability": "view",
      "type": "function"
    },
    {
      "inputs": [
        {
          "internalType": "address",
          "name": "_depositor",
          "type": "address"
        }
      ],
      "name": "pendingPayoutFor",
      "outputs": [
        {
          "internalType": "uint256",
          "name": "pendingPayout_",
          "type": "uint256"
        }
      ],
      "stateMutability": "view",
      "type": "function"
    },
    {
      "inputs": [
        {
          "internalType": "address",
          "name": "_depositor",
          "type": "address"
        }
      ],
      "name": "percentVestedFor",
      "outputs": [
        {
          "internalType": "uint256",
          "name": "percentVested_",
          "type": "uint256"
        }
      ],
      "stateMutability": "view",
      "type": "function"
    },
    {
      "inputs": [],
      "name": "policy",
      "outputs": [
        {
          "internalType": "address",
          "name": "",
          "type": "address"
        }
      ],
      "stateMutability": "view",
      "type": "function"
    },
    {
      "inputs": [],
      "name": "principle",
      "outputs": [
        {
          "internalType": "address",
          "name": "",
          "type": "address"
        }
      ],
      "stateMutability": "view",
      "type": "function"
    },
    {
      "inputs": [],
      "name": "pullManagement",
      "outputs": [],
      "stateMutability": "nonpayable",
      "type": "function"
    },
    {
      "inputs": [
        {
          "internalType": "address",
          "name": "newOwner_",
          "type": "address"
        }
      ],
      "name": "pushManagement",
      "outputs": [],
      "stateMutability": "nonpayable",
      "type": "function"
    },
    {
      "inputs": [
        {
          "internalType": "address",
          "name": "_token",
          "type": "address"
        }
      ],
      "name": "recoverLostToken",
      "outputs": [
        {
          "internalType": "bool",
          "name": "",
          "type": "bool"
        }
      ],
      "stateMutability": "nonpayable",
      "type": "function"
    },
    {
      "inputs": [
        {
          "internalType": "address",
          "name": "_recipient",
          "type": "address"
        },
        {
          "internalType": "bool",
          "name": "_stake",
          "type": "bool"
        }
      ],
      "name": "redeem",
      "outputs": [
        {
          "internalType": "uint256",
          "name": "",
          "type": "uint256"
        }
      ],
      "stateMutability": "nonpayable",
      "type": "function"
    },
    {
      "inputs": [],
      "name": "renounceManagement",
      "outputs": [],
      "stateMutability": "nonpayable",
      "type": "function"
    },
    {
      "inputs": [
        {
          "internalType": "bool",
          "name": "_addition",
          "type": "bool"
        },
        {
          "internalType": "uint256",
          "name": "_increment",
          "type": "uint256"
        },
        {
          "internalType": "uint256",
          "name": "_target",
          "type": "uint256"
        },
        {
          "internalType": "uint256",
          "name": "_buffer",
          "type": "uint256"
        }
      ],
      "name": "setAdjustment",
      "outputs": [],
      "stateMutability": "nonpayable",
      "type": "function"
    },
    {
      "inputs": [
        {
          "internalType": "enum OlympusBondDepository.PARAMETER",
          "name": "_parameter",
          "type": "uint8"
        },
        {
          "internalType": "uint256",
          "name": "_input",
          "type": "uint256"
        }
      ],
      "name": "setBondTerms",
      "outputs": [],
      "stateMutability": "nonpayable",
      "type": "function"
    },
    {
      "inputs": [
        {
          "internalType": "address",
          "name": "_DAO",
          "type": "address"
        }
      ],
      "name": "setDaoAddress",
      "outputs": [],
      "stateMutability": "nonpayable",
      "type": "function"
    },
    {
      "inputs": [
        {
          "internalType": "address",
          "name": "_staking",
          "type": "address"
        },
        {
          "internalType": "bool",
          "name": "_helper",
          "type": "bool"
        }
      ],
      "name": "setStaking",
      "outputs": [],
      "stateMutability": "nonpayable",
      "type": "function"
    },
    {
      "inputs": [],
      "name": "staking",
      "outputs": [
        {
          "internalType": "address",
          "name": "",
          "type": "address"
        }
      ],
      "stateMutability": "view",
      "type": "function"
    },
    {
      "inputs": [],
      "name": "stakingHelper",
      "outputs": [
        {
          "internalType": "address",
          "name": "",
          "type": "address"
        }
      ],
      "stateMutability": "view",
      "type": "function"
    },
    {
      "inputs": [],
      "name": "standardizedDebtRatio",
      "outputs": [
        {
          "internalType": "uint256",
          "name": "",
          "type": "uint256"
        }
      ],
      "stateMutability": "view",
      "type": "function"
    },
    {
      "inputs": [],
      "name": "terms",
      "outputs": [
        {
          "internalType": "uint256",
          "name": "controlVariable",
          "type": "uint256"
        },
        {
          "internalType": "uint256",
          "name": "vestingTerm",
          "type": "uint256"
        },
        {
          "internalType": "uint256",
          "name": "minimumPrice",
          "type": "uint256"
        },
        {
          "internalType": "uint256",
          "name": "maxPayout",
          "type": "uint256"
        },
        {
          "internalType": "uint256",
          "name": "fee",
          "type": "uint256"
        },
        {
          "internalType": "uint256",
          "name": "maxDebt",
          "type": "uint256"
        }
      ],
      "stateMutability": "view",
      "type": "function"
    },
    {
      "inputs": [],
      "name": "totalDebt",
      "outputs": [
        {
          "internalType": "uint256",
          "name": "",
          "type": "uint256"
        }
      ],
      "stateMutability": "view",
      "type": "function"
    },
    {
      "inputs": [],
      "name": "treasury",
      "outputs": [
        {
          "internalType": "address",
          "name": "",
          "type": "address"
        }
      ],
      "stateMutability": "view",
      "type": "function"
    },
    {
      "inputs": [],
      "name": "useHelper",
      "outputs": [
        {
          "internalType": "bool",
          "name": "",
          "type": "bool"
        }
      ],
      "stateMutability": "view",
      "type": "function"
    }
  ],
  "bytecode": "0x6101206040523480156200001257600080fd5b5060405162002c9738038062002c97833981810160405260a08110156200003857600080fd5b50805160208201516040808401516060850151608090950151600080546001600160a01b031916331780825593519596949592949391926001600160a01b0392909216917fea8258f2d9ddb679928cf34b78cf645b7feda9acc828e4dd82d014eaae270eba908290a36001600160a01b038516620000b557600080fd5b6001600160601b0319606086901b166080526001600160a01b038416620000db57600080fd5b6001600160601b0319606085901b1660a0526001600160a01b0383166200010157600080fd5b6001600160601b0319606084901b1660c0526001600160a01b0382166200012757600080fd5b600280546001600160a01b039384166001600160a01b03199091161790556001600160601b0319606082901b166101005216151560f81b60e05250505060805160601c60a05160601c60c05160601c60e05160f81c6101005160601c612a766200022160003980610f8952806116f55280611967525080610f5b52806116c45280611b66525080610df152806111f252806113f652806114d85250806105cc5280610fb8528061105f5280611221528061139d52806113c752806114a752806117245280611890525080611566528061185152806119b55280611b425280611bdb5280611d605280611e475280611f595250612a766000f3fe608060405234801561001057600080fd5b506004361061021c5760003560e01c8063844b5c7c11610125578063d4d863ce116100ad578063d7ccfb0b1161007c578063d7ccfb0b146105a2578063e0176de8146105aa578063e392a262146105b2578063f5c2ab5b146105ba578063fc7b9c18146105c25761021c565b8063d4d863ce14610529578063d502562514610557578063d632fd1d14610592578063d79690601461059a5761021c565b80639a3cac6a116100f45780639a3cac6a14610481578063b4abccba146104a7578063c5332b7c146104cd578063cd1234b3146104d5578063cea55f57146105215761021c565b8063844b5c7c146104375780638dbdbe6d1461043f578063904b3ece1461047157806398fabd3a146104795761021c565b806346f68ee9116101a857806361d027b31161017757806361d027b3146103c157806371535008146103c9578063759076e51461040a57806377b81895146104125780637927ebf81461041a5761021c565b806346f68ee9146103655780634cf088d91461038b578063507930ec146103935780635a96ac0a146103b95761021c565b80631a3d0068116101ef5780631a3d00681461028f5780631e321a0f146102c05780631feed31f146102e65780632f3f470a14610314578063451ee4a1146103305761021c565b8063016a42841461022157806301b88ee8146102455780630505c8c91461027d578063089208d814610285575b600080fd5b6102296105ca565b604080516001600160a01b039092168252519081900360200190f35b61026b6004803603602081101561025b57600080fd5b50356001600160a01b03166105ee565b60408051918252519081900360200190f35b610229610647565b61028d610657565b005b61028d600480360360808110156102a557600080fd5b508035151590602081013590604081013590606001356106ee565b61028d600480360360408110156102d657600080fd5b5060ff81351690602001356107e6565b61026b600480360360408110156102fc57600080fd5b506001600160a01b038135169060200135151561099a565b61031c610b8f565b604080519115158252519081900360200190f35b610338610b9f565b60408051951515865260208601949094528484019290925260608401526080830152519081900360a00190f35b61028d6004803603602081101561037b57600080fd5b50356001600160a01b0316610bb7565b610229610ca4565b61026b600480360360208110156103a957600080fd5b50356001600160a01b0316610cb3565b61028d610d45565b610229610def565b61028d600480360360e08110156103df57600080fd5b5080359060208101359060408101359060608101359060808101359060a08101359060c00135610e13565b61026b610f07565b610229610f22565b61026b6004803603602081101561043057600080fd5b5035610f31565b61026b610f57565b61026b6004803603606081101561045557600080fd5b50803590602081013590604001356001600160a01b03166110f0565b61026b6116c0565b6102296117bc565b61028d6004803603602081101561049757600080fd5b50356001600160a01b03166117cb565b61031c600480360360208110156104bd57600080fd5b50356001600160a01b031661184d565b610229611965565b6104fb600480360360208110156104eb57600080fd5b50356001600160a01b0316611989565b604080519485526020850193909352838301919091526060830152519081900360800190f35b61026b6119b0565b61028d6004803603604081101561053f57600080fd5b506001600160a01b0381351690602001351515611a68565b61055f611b2b565b604080519687526020870195909552858501939093526060850191909152608084015260a0830152519081900360c00190f35b610229611b40565b61031c611b64565b61026b611b88565b61026b611bc7565b61026b611c64565b61026b611ca9565b61026b611caf565b7f000000000000000000000000000000000000000000000000000000000000000081565b6000806105fa83610cb3565b6001600160a01b038416600090815260106020526040902054909150612710821061062757809250610640565b61063d6127106106378385611cb5565b90611d15565b92505b5050919050565b6000546001600160a01b03165b90565b6000546001600160a01b031633146106a4576040805162461bcd60e51b815260206004820181905260248201526000805160206129b0833981519152604482015290519081900360640190fd5b600080546040516001600160a01b03909116907fea8258f2d9ddb679928cf34b78cf645b7feda9acc828e4dd82d014eaae270eba908390a3600080546001600160a01b0319169055565b6000546001600160a01b0316331461073b576040805162461bcd60e51b815260206004820181905260248201526000805160206129b0833981519152604482015290519081900360640190fd5b600554610751906103e890610637906019611cb5565b83111561079b576040805162461bcd60e51b8152602060048201526013602482015272496e6372656d656e7420746f6f206c6172676560681b604482015290519081900360640190fd5b6040805160a0810182529415158086526020860185905290850183905260608501829052436080909501859052600b805460ff19169091179055600c92909255600d55600e55600f55565b6000546001600160a01b03163314610833576040805162461bcd60e51b815260206004820181905260248201526000805160206129b0833981519152604482015290519081900360640190fd5b600082600381111561084157fe5b1415610892576127108110156108885760405162461bcd60e51b81526004018080602001828103825260248152602001806129f36024913960400191505060405180910390fd5b6006819055610996565b60018260038111156108a057fe5b1415610907576103e88111156108fd576040805162461bcd60e51b815260206004820181905260248201527f5061796f75742063616e6e6f742062652061626f766520312070657263656e74604482015290519081900360640190fd5b6008819055610996565b600282600381111561091557fe5b141561097c57612710811115610972576040805162461bcd60e51b815260206004820152601c60248201527f44414f206665652063616e6e6f7420657863656564207061796f757400000000604482015290519081900360640190fd5b6009819055610996565b600382600381111561098a57fe5b141561099657600a8190555b5050565b60006109a46128e6565b506001600160a01b0383166000908152601060209081526040808320815160808101835281548152600182015493810193909352600281015491830191909152600301546060820152906109f785610cb3565b90506127108110610a87576001600160a01b03851660008181526010602090815260408083208381556001810184905560028101849055600301839055855181519081529182019290925281517f51c99f515c87b0d95ba97f616edd182e8f161c4932eac17c6fefe9dab58b77b1929181900390910190a2610a7e85858460000151611d57565b92505050610b89565b8151600090610a9e90612710906106379085611cb5565b90506040518060800160405280610ac283866000015161205a90919063ffffffff16565b8152602001610aec610ae186604001514361205a90919063ffffffff16565b60208701519061205a565b8152436020808301919091526060808701516040938401526001600160a01b038a166000818152601084528490208551808255868501516001830155868601516002830155959092015160039092019190915582518581529182019390935281517f51c99f515c87b0d95ba97f616edd182e8f161c4932eac17c6fefe9dab58b77b1929181900390910190a2610b83868683611d57565b93505050505b92915050565b600454600160a01b900460ff1681565b600b54600c54600d54600e54600f5460ff9094169385565b6000546001600160a01b03163314610c04576040805162461bcd60e51b815260206004820181905260248201526000805160206129b0833981519152604482015290519081900360640190fd5b6001600160a01b038116610c495760405162461bcd60e51b81526004018080602001828103825260268152602001806129216026913960400191505060405180910390fd5b600080546040516001600160a01b03808516939216917fea8258f2d9ddb679928cf34b78cf645b7feda9acc828e4dd82d014eaae270eba91a3600180546001600160a01b0319166001600160a01b0392909216919091179055565b6003546001600160a01b031681565b6000610cbd6128e6565b506001600160a01b03821660009081526010602090815260408083208151608081018352815481526001820154938101939093526002810154918301829052600301546060830152909190610d1390439061205a565b60208301519091508015610d3857610d318161063784612710611cb5565b9350610d3d565b600093505b505050919050565b6001546001600160a01b03163314610d8e5760405162461bcd60e51b81526004018080602001828103825260228152602001806129476022913960400191505060405180910390fd5b600154600080546040516001600160a01b0393841693909116917faa151555690c956fc3ea32f106bb9f119b5237a061eaa8557cff3e51e3792c8d91a3600154600080546001600160a01b0319166001600160a01b03909216919091179055565b7f000000000000000000000000000000000000000000000000000000000000000081565b6000546001600160a01b03163314610e60576040805162461bcd60e51b815260206004820181905260248201526000805160206129b0833981519152604482015290519081900360640190fd5b60055415610eb5576040805162461bcd60e51b815260206004820181905260248201527f426f6e6473206d75737420626520696e697469616c697a65642066726f6d2030604482015290519081900360640190fd5b6040805160c08101825288815260208101889052908101869052606081018590526080810184905260a001829052600596909655600694909455600792909255600855600955600a5560115543601255565b6000610f1d610f14611c64565b6011549061205a565b905090565b6004546001600160a01b031681565b6000610b89662386f26fc10000610637610f5285610f4d611b88565b61209c565b612213565b60007f0000000000000000000000000000000000000000000000000000000000000000156110555761104e60646106377f00000000000000000000000000000000000000000000000000000000000000006001600160a01b03166332da80a37f00000000000000000000000000000000000000000000000000000000000000006040518263ffffffff1660e01b815260040180826001600160a01b0316815260200191505060206040518083038186803b15801561101457600080fd5b505afa158015611028573d6000803e3d6000fd5b505050506040513d602081101561103e57600080fd5b5051611048611b88565b90611cb5565b9050610654565b610f1d60646106377f00000000000000000000000000000000000000000000000000000000000000006001600160a01b031663313ce5676040518163ffffffff1660e01b815260040160206040518083038186803b1580156110b657600080fd5b505afa1580156110ca573d6000803e3d6000fd5b505050506040513d60208110156110e057600080fd5b505160ff16600a0a611048611b88565b60006001600160a01b03821661113f576040805162461bcd60e51b815260206004820152600f60248201526e496e76616c6964206164647265737360881b604482015290519081900360640190fd5b61114761222b565b600a546011541115611197576040805162461bcd60e51b815260206004820152601460248201527313585e0818d85c1858da5d1e481c995858da195960621b604482015290519081900360640190fd5b60006111a1610f57565b905060006111ad61223f565b9050808510156111ee5760405162461bcd60e51b81526004018080602001828103825260238152602001806129d06023913960400191505060405180910390fd5b60007f00000000000000000000000000000000000000000000000000000000000000006001600160a01b0316631eec5a9a7f0000000000000000000000000000000000000000000000000000000000000000896040518363ffffffff1660e01b815260040180836001600160a01b031681526020018281526020019250505060206040518083038186803b15801561128557600080fd5b505afa158015611299573d6000803e3d6000fd5b505050506040513d60208110156112af57600080fd5b5051905060006112be82610f31565b905062989680811015611309576040805162461bcd60e51b815260206004820152600e60248201526d109bdb99081d1bdbc81cdb585b1b60921b604482015290519081900360640190fd5b611311611bc7565b811115611356576040805162461bcd60e51b815260206004820152600e60248201526d426f6e6420746f6f206c6172676560901b604482015290519081900360640190fd5b600061137661271061063760056004015485611cb590919063ffffffff16565b9050600061138e82611388868661205a565b9061205a565b90506113c56001600160a01b037f00000000000000000000000000000000000000000000000000000000000000001633308d612281565b7f00000000000000000000000000000000000000000000000000000000000000006001600160a01b031663095ea7b37f00000000000000000000000000000000000000000000000000000000000000008c6040518363ffffffff1660e01b815260040180836001600160a01b0316815260200182815260200192505050602060405180830381600087803b15801561145c57600080fd5b505af1158015611470573d6000803e3d6000fd5b505050506040513d602081101561148657600080fd5b50506040805163bc157ac160e01b8152600481018c90526001600160a01b037f0000000000000000000000000000000000000000000000000000000000000000811660248301526044820184905291517f00000000000000000000000000000000000000000000000000000000000000009092169163bc157ac1916064808201926020929091908290030181600087803b15801561152357600080fd5b505af1158015611537573d6000803e3d6000fd5b505050506040513d602081101561154d57600080fd5b5050811561158f5760025461158f906001600160a01b037f000000000000000000000000000000000000000000000000000000000000000081169116846122e1565b60115461159c9085612338565b601155604080516080810182526001600160a01b038a1660009081526010602052919091205481906115ce9086612338565b81526006805460208084019190915243604080850182905260609485018c90526001600160a01b038e16600090815260108452819020865181559286015160018401558501516002830155939092015160039092019190915554879161163391612338565b604080518d8152905186917f1fec6dc81f140574bf43f6b1e420ae1dd47928b9d57db8cbd7b8611063b85ae5919081900360200190a46116716119b0565b61167961223f565b611681610f57565b6040517f375b221f40939bfd8f49723a17cf7bc6d576ebf72efe2cc3e991826f5b3f390a90600090a46116b2612392565b509098975050505050505050565b60007f0000000000000000000000000000000000000000000000000000000000000000156117b45761104e633b9aca006106377f00000000000000000000000000000000000000000000000000000000000000006001600160a01b03166332da80a37f00000000000000000000000000000000000000000000000000000000000000006040518263ffffffff1660e01b815260040180826001600160a01b0316815260200191505060206040518083038186803b15801561178057600080fd5b505afa158015611794573d6000803e3d6000fd5b505050506040513d60208110156117aa57600080fd5b50516110486119b0565b61104e6119b0565b6002546001600160a01b031681565b6000546001600160a01b03163314611818576040805162461bcd60e51b815260206004820181905260248201526000805160206129b0833981519152604482015290519081900360640190fd5b6001600160a01b03811661182b57600080fd5b600280546001600160a01b0319166001600160a01b0392909216919091179055565b60007f00000000000000000000000000000000000000000000000000000000000000006001600160a01b0316826001600160a01b0316141561188e57600080fd5b7f00000000000000000000000000000000000000000000000000000000000000006001600160a01b0316826001600160a01b031614156118cd57600080fd5b600254604080516370a0823160e01b8152306004820152905161195d926001600160a01b0390811692908616916370a0823191602480820192602092909190829003018186803b15801561192057600080fd5b505afa158015611934573d6000803e3d6000fd5b505050506040513d602081101561194a57600080fd5b50516001600160a01b03851691906122e1565b506001919050565b7f000000000000000000000000000000000000000000000000000000000000000081565b60106020526000908152604090208054600182015460028301546003909301549192909184565b6000807f00000000000000000000000000000000000000000000000000000000000000006001600160a01b03166318160ddd6040518163ffffffff1660e01b815260040160206040518083038186803b158015611a0c57600080fd5b505afa158015611a20573d6000803e3d6000fd5b505050506040513d6020811015611a3657600080fd5b50519050611a62670de0b6b3a7640000610637610f52611a5c633b9aca00611048610f07565b8561209c565b91505090565b6000546001600160a01b03163314611ab5576040805162461bcd60e51b815260206004820181905260248201526000805160206129b0833981519152604482015290519081900360640190fd5b6001600160a01b038216611ac857600080fd5b8015611afd5760048054600160a01b60ff60a01b19909116176001600160a01b0319166001600160a01b038416179055610996565b6004805460ff60a01b19169055600380546001600160a01b0384166001600160a01b03199091161790555050565b600554600654600754600854600954600a5486565b7f000000000000000000000000000000000000000000000000000000000000000081565b7f000000000000000000000000000000000000000000000000000000000000000081565b6000611bb362989680610637633b9aca00611bad611ba46119b0565b60055490611cb5565b90612338565b600754909150811015610654575060075490565b6000610f1d620186a06106376005600301547f00000000000000000000000000000000000000000000000000000000000000006001600160a01b03166318160ddd6040518163ffffffff1660e01b815260040160206040518083038186803b158015611c3257600080fd5b505afa158015611c46573d6000803e3d6000fd5b505050506040513d6020811015611c5c57600080fd5b505190611cb5565b600080611c7c6012544361205a90919063ffffffff16565b600654601154919250611c93916106379084611cb5565b9150601154821115611ca55760115491505b5090565b60125481565b60115481565b600082611cc457506000610b89565b82820282848281611cd157fe5b0414611d0e5760405162461bcd60e51b815260040180806020018281038252602181526020018061298f6021913960400191505060405180910390fd5b9392505050565b6000611d0e83836040518060400160405280601a81526020017f536166654d6174683a206469766973696f6e206279207a65726f000000000000815250612472565b600082611e07577f00000000000000000000000000000000000000000000000000000000000000006001600160a01b031663a9059cbb85846040518363ffffffff1660e01b815260040180836001600160a01b0316815260200182815260200192505050602060405180830381600087803b158015611dd557600080fd5b505af1158015611de9573d6000803e3d6000fd5b505050506040513d6020811015611dff57600080fd5b506120539050565b600454600160a01b900460ff1615611f2d57600480546040805163095ea7b360e01b81526001600160a01b039283169381019390935260248301859052517f00000000000000000000000000000000000000000000000000000000000000009091169163095ea7b39160448083019260209291908290030181600087803b158015611e9157600080fd5b505af1158015611ea5573d6000803e3d6000fd5b505050506040513d6020811015611ebb57600080fd5b50506004805460408051637acb775760e01b81529283018590526001600160a01b0387811660248501529051911691637acb775791604480830192600092919082900301818387803b158015611f1057600080fd5b505af1158015611f24573d6000803e3d6000fd5b50505050612053565b6003546040805163095ea7b360e01b81526001600160a01b0392831660048201526024810185905290517f00000000000000000000000000000000000000000000000000000000000000009092169163095ea7b3916044808201926020929091908290030181600087803b158015611fa457600080fd5b505af1158015611fb8573d6000803e3d6000fd5b505050506040513d6020811015611fce57600080fd5b505060035460408051637acb775760e01b8152600481018590526001600160a01b03878116602483015291519190921691637acb77579160448083019260209291908290030181600087803b15801561202657600080fd5b505af115801561203a573d6000803e3d6000fd5b505050506040513d602081101561205057600080fd5b50505b5092915050565b6000611d0e83836040518060400160405280601e81526020017f536166654d6174683a207375627472616374696f6e206f766572666c6f770000815250612514565b6120a461290e565b600082116120e35760405162461bcd60e51b81526004018080602001828103825260268152602001806129696026913960400191505060405180910390fd5b826120fd5750604080516020810190915260008152610b89565b71ffffffffffffffffffffffffffffffffffff83116121a457600082607085901b8161212557fe5b0490506001600160e01b03811115612184576040805162461bcd60e51b815260206004820152601e60248201527f4669786564506f696e743a3a6672616374696f6e3a206f766572666c6f770000604482015290519081900360640190fd5b6040518060200160405280826001600160e01b0316815250915050610b89565b60006121b584600160701b8561256e565b90506001600160e01b03811115612184576040805162461bcd60e51b815260206004820152601e60248201527f4669786564506f696e743a3a6672616374696f6e3a206f766572666c6f770000604482015290519081900360640190fd5b516612725dd1d243ab6001600160e01b039091160490565b612236610f14611c64565b60115543601255565b600061225b62989680610637633b9aca00611bad611ba46119b0565b6007549091508110156122715750600754610654565b6007541561065457600060075590565b604080516001600160a01b0380861660248301528416604482015260648082018490528251808303909101815260849091019091526020810180516001600160e01b03166323b872dd60e01b1790526122db90859061260e565b50505050565b604080516001600160a01b038416602482015260448082018490528251808303909101815260649091019091526020810180516001600160e01b031663a9059cbb60e01b17905261233390849061260e565b505050565b600082820183811015611d0e576040805162461bcd60e51b815260206004820152601b60248201527f536166654d6174683a206164646974696f6e206f766572666c6f770000000000604482015290519081900360640190fd5b600e54600f546000916123a59190612338565b600c54909150158015906123b95750804310155b1561246f57600554600b5460ff16156123f357600c546005546123db91612338565b6005819055600d54116123ee576000600c555b612415565b600c546005546124029161205a565b6005819055600d5410612415576000600c555b43600f55600554600c54600b546040805185815260208101949094528381019290925260ff1615156060830152517fb923e581a0f83128e9e1d8297aa52b18d6744310476e0b54509c054cd7a93b2a9181900360800190a1505b50565b600081836124fe5760405162461bcd60e51b81526004018080602001828103825283818151815260200191508051906020019080838360005b838110156124c35781810151838201526020016124ab565b50505050905090810190601f1680156124f05780820380516001836020036101000a031916815260200191505b509250505060405180910390fd5b50600083858161250a57fe5b0495945050505050565b600081848411156125665760405162461bcd60e51b81526020600482018181528351602484015283519092839260449091019190850190808383600083156124c35781810151838201526020016124ab565b505050900390565b600080600061257d86866126bf565b915091506000848061258b57fe5b86880990508281111561259f576001820391505b80830392508482106125f8576040805162461bcd60e51b815260206004820152601a60248201527f46756c6c4d6174683a3a6d756c4469763a206f766572666c6f77000000000000604482015290519081900360640190fd5b6126038383876126ec565b979650505050505050565b6060612663826040518060400160405280602081526020017f5361666545524332303a206c6f772d6c6576656c2063616c6c206661696c6564815250856001600160a01b031661275c9092919063ffffffff16565b8051909150156123335780806020019051602081101561268257600080fd5b50516123335760405162461bcd60e51b815260040180806020018281038252602a815260200180612a17602a913960400191505060405180910390fd5b60008080600019848609905083850292508281039150828110156126e4576001820391505b509250929050565b600081810382168083816126fc57fe5b04925080858161270857fe5b04945080816000038161271757fe5b60028581038087028203028087028203028087028203028087028203028087028203028087028203029586029003909402930460010193909302939093010292915050565b606061276b8484600085612773565b949350505050565b606061277e856128e0565b6127cf576040805162461bcd60e51b815260206004820152601d60248201527f416464726573733a2063616c6c20746f206e6f6e2d636f6e7472616374000000604482015290519081900360640190fd5b60006060866001600160a01b031685876040518082805190602001908083835b6020831061280e5780518252601f1990920191602091820191016127ef565b6001836020036101000a03801982511681845116808217855250505050505090500191505060006040518083038185875af1925050503d8060008114612870576040519150601f19603f3d011682016040523d82523d6000602084013e612875565b606091505b5091509150811561288957915061276b9050565b8051156128995780518082602001fd5b60405162461bcd60e51b81526020600482018181528651602484015286518793919283926044019190850190808383600083156124c35781810151838201526020016124ab565b3b151590565b6040518060800160405280600081526020016000815260200160008152602001600081525090565b6040805160208101909152600081529056fe4f776e61626c653a206e6577206f776e657220697320746865207a65726f20616464726573734f776e61626c653a206d757374206265206e6577206f776e657220746f2070756c6c4669786564506f696e743a3a6672616374696f6e3a206469766973696f6e206279207a65726f536166654d6174683a206d756c7469706c69636174696f6e206f766572666c6f774f776e61626c653a2063616c6c6572206973206e6f7420746865206f776e6572536c697070616765206c696d69743a206d6f7265207468616e206d617820707269636556657374696e67206d757374206265206c6f6e676572207468616e20333620686f7572735361666545524332303a204552433230206f7065726174696f6e20646964206e6f742073756363656564a2646970667358221220629d08d4abc351c898ed81a550c0c0f1a1262196b7f8391515843f0a0f2e758464736f6c63430007050033",
  "linkReferences": {},
  "deployedLinkReferences": {}
}